:1000000029C1000058C1000056C1000054C10000C1
:1000100052C1000050C100004EC100004CC10000A0
:100020004AC1000048C1000046C1000044C10000B0
:1000300042C1000040C100003EC100003CC10000C0
:100040003AC100000C942E1736C1000034C10000E4
:1000500032C1000030C100002EC100002CC10000E0
:100060002AC1000028C1000026C1000024C10000F0
:1000700022C1000020C100001EC100001CC1000000
:100080001AC1000018C1000016C1000014C1000010
:1000900012C1000010C100000EC100000CC1000020
:1000A0000AC1000008C1000006C1000004C1000030
:1000B00002C1000000C10000FEC00000FCC0000042
:1000C000FAC00000F8C00000F6C00000F4C0000054
:1000D000F2C00000F0C00000EEC00000ECC0000064
:1000E000EAC00000084AD73B3BCE016E84BCBFFD8E
:1000F000C12F3D6C74319ABD56833DDA3D00C77FF8
:1001000011BED9E4BB4C3E916BAAAABE0000008090
:100110003F072C7AA5BA6CC590DA3B9365FC8BBC83
:1001200053F810FD3C5692834DBD879D3AB63DCBAA
:10013000C9BF5BBE73DA0FC93F05A84CCDB2D44E20
:10014000B93836A9020C50B9918688083CA6AAAAEB
:100150002ABE000000803F0000407A10F35A00A041
:10016000724E18090010A5D4E80000E87648170080
:1001700000E40B54020000CA9A3B000000E1F505C0
:10018000000080969800000040420F000000A0860A
:1001900001000000102700000000E803000000003C
:1001A0006400000000000A000000000001000000E0
:1001B00000002C76D888DC674F0823DFC1DFAE59FA
:1001C000E1B1B796E5E3E453C63AE651997696E88D
:1001D000E6C28426EB898C9B62ED407C6FFCEFBC11
:1001E0009C9F40F2BAA56FA5F490055A2AF75C933C
:1001F0006B6CF9676DC11BFCE0E40D47FEF520E672
:10020000B500D0ED902E0300943577050080841E54
:10021000080000204E0A000000C80C333333330FAF
:10022000986E12831141EF8D2114893BE65516CF4C
:10023000FEE6DB18D1844B381BF77C1D901DA4BB58
:10024000E424203284725E228100C9F124ECA1E50D
:100250003D277B1911241FBECFEFD1E2DEBFCDBFFA
:1002600000E00CBF15E0A0E0B2E0E0E2F1E400E065
:100270000BBF02C007900D92A436B107D9F728E052
:10028000A4E6B5E001C01D92A73CB207E1F711E07A
:10029000CAE2D1E000E006C021970109802FFE01EB
:1002A0000E94191EC932D10780E00807A9F70E94F1
:1002B0002E190C948E20A4CE68988DB18A638DB9C6
:1002C000809880B38E6180BB889811BAE1E0F1E03C
:1002D0008081886380830895E0E9F0E080818E7FEB
:1002E0008083808182608083E1E9F0E080818860A2
:1002F000808380818061808380818F77808380810B
:100300008B7F808380818D7F808380818E7F8083BF
:10031000109292001092710018BA2FE33CE93093CA
:10032000970020939600E0EAF0E080818E7F808342
:10033000808182608083E1EAF0E080818860808350
:1003400080818061808380818F77808380818B7FB3
:10035000808380818D7F808380818E7F80831092D7
:10036000A2001092720019BA3093A7002093A60041
:1003700008951092950010929400E1E9F0E08081D8
:100380008B7F808380818260808380818E7F808369
:100390001092A5001092A400E1EAF0E080818B7F2A
:1003A000808380818260808380818E7F80830895B6
:1003B000CF92DF92EF92FF926B017C0120E030E060
:1003C0004CE852E40E94131D18169CF020E030E027
:1003D0004CE852ECC701B6010E94481B88238CF4FC
:1003E0000F2EC12CD12CFCE8EF2EF2ECFF2EF02DBD
:1003F00008C00F2EC12CD12CFCE8EF2EF2E4FF2E0A
:10040000F02DE0E9F0E080818068808380818F7B3F
:100410008083A701960160E070E084EB92E40E9483
:10042000BB1A20E030E040E351E40E941E1D20E0B2
:1004300030E044E353E40E944F1B20E030E040E012
:1004400050E40E94BC1A20E03FE34CE157E40E94D4
:100450001E1D20E030E048EC52E40E944F1B0E9439
:10046000BC1B7093990060939800FF90EF90DF9011
:10047000CF900895CF92DF92EF92FF926B017C01B3
:1004800020E030E04CE852E40E94131D18169CF066
:1004900020E030E04CE852ECC701B6010E94481B56
:1004A00088238CF40F2EC12CD12CFCE8EF2EF2EC1B
:1004B000FF2EF02D08C00F2EC12CD12CFCE8EF2E02
:1004C000F2E4FF2EF02DE0E9F0E08081806280838D
:1004D00080818F7E808320E030E044EB52E4C701CE
:1004E000B6010E94BC1A20E030E040E351E40E94D3
:1004F0001E1D20E030E044E353E40E944F1B20E047
:1005000030E040E050E40E94BC1A20E03FE34CE1C0
:1005100057E40E941E1D20E030E048EC52E40E94A7
:100520004F1B0E94BC1B70939B0060939A00FF902E
:10053000EF90DF90CF900895CF92DF92EF92FF92ED
:100540006B017C0120E030E04CE852E40E94131D76
:1005500018169CF020E030E04CE852ECC701B601E0
:100560000E94481B88238CF40F2EC12CD12CFCE850
:10057000EF2EF2ECFF2EF02D08C00F2EC12CD12C47
:10058000FCE8EF2EF2E4FF2EF02DE0E9F0E08081B0
:100590008860808380818B7F8083A701960160E0E3
:1005A00070E084EB92E40E94BB1A20E030E040E36C
:1005B00051E40E941E1D20E030E044E353E40E9419
:1005C0004F1B20E030E040E050E40E94BC1A20E0E5
:1005D0003FE34CE157E40E941E1D20E030E048EC70
:1005E00052E40E944F1B0E94BC1B70939D006093BD
:1005F0009C00FF90EF90DF90CF900895CF92DF9214
:10060000EF92FF926B017C0120E030E04CE852E475
:100610000E94131D18169CF020E030E04CE852ECCC
:10062000C701B6010E94481B88238CF40F2EC12CF1
:10063000D12CFCE8EF2EF2ECFF2EF02D08C00F2E8F
:10064000C12CD12CFCE8EF2EF2E4FF2EF02DE0EAD5
:10065000F0E080818068808380818F7B808320E0D0
:1006600030E044EB52E4C701B6010E94BC1A20E01E
:1006700030E040E251E40E941E1D20E030E044E3FF
:1006800053E40E944F1B20E030E040E050E40E9421
:10069000BC1A20E03FE34CE157E40E941E1D20E01D
:1006A00030E048EC52E40E944F1B0E94BC1B709348
:1006B000A9006093A800FF90EF90DF90CF9008957D
:1006C000CF92DF92EF92FF926B017C0120E030E04D
:1006D0004CE852E40E94131D18169CF020E030E014
:1006E0004CE852ECC701B6010E94481B88238CF4E9
:1006F0000F2EC12CD12CFCE8EF2EF2ECFF2EF02DAA
:1007000008C00F2EC12CD12CFCE8EF2EF2E4FF2EF6
:10071000F02DE0EAF0E080818062808380818F7E2E
:100720008083A701960160E070E084EB92E40E9470
:10073000BB1A20E030E040E251E40E941E1D20E0A0
:1007400030E044E353E40E944F1B20E030E040E4FB
:1007500050E40E94BC1A20E03FE34CE157E40E94C1
:100760001E1D20E030E048EC52E40E944F1B0E9426
:10077000BC1B7093AB006093AA00FF90EF90DF90DA
:10078000CF900895CF92DF92EF92FF926B017C01A0
:1007900020E030E04CE852E40E94131D18169CF053
:1007A00020E030E04CE852ECC701B6010E94481B43
:1007B00088238CF40F2EC12CD12CFCE8EF2EF2EC08
:1007C000FF2EF02D08C00F2EC12CD12CFCE8EF2EEF
:1007D000F2E4FF2EF02DE0EAF0E080818860808373
:1007E00080818B7F808320E030E044EB52E4C701BE
:1007F000B6010E94BC1A20E030E040E251E40E94C1
:100800001E1D20E030E044E353E40E944F1B20E033
:1008100030E040E050E40E94BC1A20E03FE34CE1AD
:1008200057E40E941E1D20E030E048EC52E40E9494
:100830004F1B0E94BC1B7093AD006093AC00FF90F7
:10084000EF90DF90CF9008954F925F926F927F92DA
:100850008F929F92AF92BF92CF92DF92EF92FF92D0
:100860000F931F93CF93DF93CDB7DEB768970FB683
:10087000F894DEBF0FBECDBFED82FE820F831887D6
:1008800001E518E00F2E412C512CF0E86F2EFFE30C
:100890007F2EF02DF8014082518262827382148291
:1008A0001582168217821086118612861386648737
:1008B000758786879787108A118A128A138A448AD5
:1008C000558A668A778A108E118E128E138E248F27
:1008D000358F468F578F10A211A212A213A214A215
:1008E00015A216A217A240A651A662A673A62AE9CF
:1008F00039E941E851E46D817E818F8198850E94BC
:10090000BC1AF80164A775A786A797A710AA11AA11
:1009100012AA13AA14AA15AA16AA17AA10AE11AEE3
:1009200012AE13AE44AE55AE66AE77AE2BED3FE0E1
:1009300049E450E4C601B5010E941E1D20E030E0EC
:1009400044E353E40E944F1B69837A838B839C8327
:100950002BED3FE049E450E46CA57DA58EA59FA555
:100960000E941E1D20E030E044E353E40E944F1B30
:100970004B015C012BED3FE049E450E468A979A903
:100980008AA99BA90E941E1D20E030E044E353E4A5
:100990000E944F1B6B017C010E944C1B69877A8768
:1009A0008B879C87C501B4010E944C1B6D877E8795
:1009B0008F87988B01E118E09B01AC0169857A85EE
:1009C0008B859C850E941E1DF80160837183828344
:1009D0009383C701B6010E94811D6B017C0169816F
:1009E0007A818B819C810E944C1B6D837E838F83D7
:1009F0009887C501B4010E94811D4B015C019B01D8
:100A0000AC0169857A858B859C850E941E1D698B4A
:100A10007A8B8B8B9C8B69817A818B819C810E94E4
:100A2000811D69837A838B839C83C701B6019058AB
:100A30002D813E814F8158850E941E1D6D8B7E8BBE
:100A40008F8B988F29813A814B815C8169897A8962
:100A50008B899C890E941E1D9B01AC016D897E893A
:100A60008F89988D0E94BC1AF801648375838683F0
:100A7000978329813A814B815C81C701B6010E942D
:100A80001E1D6D8B7E8B8F8B988F29893A894B89A0
:100A90005C896D817E818F8198850E941E1D9B01DE
:100AA000AC016D897E898F89988D0E94BC1AF801EE
:100AB00060877187828793871486158616861786C6
:100AC000A70196016D857E858F8598890E941E1DE0
:100AD000F801608B718B828B938BA5019401C70108
:100AE000B6010E941E1D6B017C012D813E814F814C
:100AF000588569857A858B859C850E941E1D698B2A
:100B00007A8B8B8B9C8BA701960169817A818B8173
:100B10009C810E941E1D9B01AC0169897A898B8989
:100B20009C890E94BC1AF801648B758B868B978B0D
:100B300069857A858B859C85905829813A814B817E
:100B40005C810E941E1D69877A878B879C87A7011D
:100B500096016D817E818F8198850E941E1D9B016B
:100B6000AC0169857A858B859C850E94BC1AF80149
:100B7000608F718F828F938F148E158E168E178EC5
:100B8000D501C401B05880A391A3A2A3B3A3298126
:100B90003A814B815C816D857E858F8598890E9425
:100BA0001E1DF80164A375A386A397A32D813E8122
:100BB0004F8158856D857E858F8598890E941E1D81
:100BC000F80160A771A782A793A714A615A616A679
:100BD00017A610AA11AA12AA13AA14AA15AA16AA2D
:100BE00017AA10AE11AE12AE13AE44AE55AE66AE3D
:100BF00077AE68960FB6F894DEBF0FBECDBFDF911B
:100C0000CF911F910F91FF90EF90DF90CF90BF9009
:100C1000AF909F908F907F906F905F904F900895CE
:100C20002F923F924F925F926F927F928F929F92FC
:100C3000AF92BF92CF92DF92EF92FF920F931F93EA
:100C4000CF93DF9300D000D0CDB7DEB721E538E0F9
:100C50003A83298381ED97E09C838B830F2EF1E209
:100C60002F2EF8E03F2EF02D0F2EF1E16F2EF8E041
:100C70007F2EF02D4B805C8062018301005C1F4F52
:100C80007301E981FA81812C912CA12CB12CFE8376
:100C9000ED83ED81FE816191719181919191FE834E
:100CA000ED83F70120813181428153810E941E1D15
:100CB0009B01AC01682D792D8A2D9B2D0E94BC1AB9
:100CC000862E972EA82EB92EF0E1EF0EF11CE0161D
:100CD000F106F9F6862F992DAA2DBB2DF6018083FA
:100CE0009183A283B383F4E04F0E511C24E0620E83
:100CF000711C6214730409F0BFCF89819A814096F8
:100D00009A838983EB81FC817096FC83EB8321E9D4
:100D100038E02817390709F0A7CF84E090E09093D6
:100D200092088093910890939408809393089093ED
:100D300096088093950826960FB6F894DEBF0FBEEE
:100D4000CDBFDF91CF911F910F91FF90EF90DF907A
:100D5000CF90BF90AF909F908F907F906F905F905B
:100D60004F903F902F9008952F923F924F925F9215
:100D70006F927F928F929F92AF92BF92CF92DF92AB
:100D8000EF92FF920F931F93CF93DF93CDB7DEB710
:100D900028970FB6F894DEBF0FBECDBF41DF21ED1F
:100DA00037E03E832D8381E997E09C838B833A83F0
:100DB00029830F2EFCEE2F2EF4E03F2EF02D0F2E68
:100DC000FCED6F2EF4E07F2EF02D4B805C806201F5
:100DD0008301005C1F4F730129813A81812C912C82
:100DE000A12CB12C38872F83EF81F8856191719107
:100DF00081919191F887EF83F701208131814281C0
:100E000053810E941E1D9B01AC01682D792D8A2DF6
:100E10009B2D0E94BC1A862E972EA82EB92EF0E18B
:100E2000EF0EF11CE016F106F9F6862F992DAA2D8A
:100E3000BB2DF60180839183A283B383F4E04F0E30
:100E4000511C24E0620E711C6214730409F0BFCFC0
:100E500089819A8140969A838983EB81FC8170967F
:100E6000FC83EB8321E138E02817390709F0A7CF8D
:100E700081E597E09C838B83E1EDF7E0FA83E983DA
:100E80000F2EFCEA2F2EF4E03F2EF02D0F2EFCE962
:100E90006F2EF4E07F2EF02D4B805C806201830189
:100EA000005C1F4F730129813A81812C912CA12C68
:100EB000B12C38872F83EF81F885619171918191F1
:100EC0009191F887EF83F70120813181428153812D
:100ED0000E941E1D9B01AC01682D792D8A2D9B2D32
:100EE0000E94BC1A862E972EA82EB92EF0E1EF0E86
:100EF000F11CE016F106F9F6862F992DAA2DBB2DCF
:100F0000F60180839183A283B383F4E04F0E511CDA
:100F100024E0620E711C6214730409F0BFCF898152
:100F20009A8140969A838983EB81FC817096FC8339
:100F3000EB8321E138E02817390709F0A7CF81E1D9
:100F400097E09C838B83E1EDF7E0FA83E9830F2E32
:100F5000FCE62F2EF4E03F2EF02D0F2EFCE56F2E39
:100F6000F4E07F2EF02D4B805C8062018301005CF9
:100F70001F4F730129813A81812C912CA12CB12C16
:100F800038872F83EF81F8856191719181919191DB
:100F9000F887EF83F70120813181428153810E94DC
:100FA0001E1D9B01AC01682D792D8A2D9B2D0E9461
:100FB000BC1A862E972EA82EB92EF0E1EF0EF11C4A
:100FC000E016F106F9F6862F992DAA2DBB2DF60114
:100FD00080839183A283B383F4E04F0E511C24E0FD
:100FE000620E711C6214730409F0BFCF89819A816B
:100FF00040969A838983EB81FC817096FC83EB8316
:1010000021E138E02817390709F0A7CF81ED96E0F4
:101010009C838B83E1EDF7E0FA83E9830F2EFCE2FA
:101020002F2EF4E03F2EF02D0F2EFCE16F2EF4E07A
:101030007F2EF02D4B805C8062018301005C1F4F8E
:10104000730129813A81812C912CA12CB12C3887F4
:101050002F83EF81F8856191719181919191F8874A
:10106000EF83F70120813181428153810E941E1D4F
:101070009B01AC01682D792D8A2D9B2D0E94BC1AF5
:10108000862E972EA82EB92EF0E1EF0EF11C0E152C
:101090001F05F9F6862F992DAA2DBB2DF601808309
:1010A0009183A283B383F4E04F0E511C24E0620EBF
:1010B000711C2614370409F0BFCF89819A814096AC
:1010C0009A838983EB81FC817096FC83EB8321E119
:1010D00038E02817390709F0A7CF81E996E09C830B
:1010E0008B83E1EDF7E0FA83E9830F2EFCEE2F2EE0
:1010F000F3E03F2EF02D0F2EFCED6F2EF3E07F2E50
:10110000F02D4B805C8062018301005C1F4F7301F6
:1011100029813A81812C912CA12CB12C38872F83E5
:10112000EF81F8856191719181919191F887EF83B9
:10113000F70120813181428153810E941E1D9B0154
:10114000AC01682D792D8A2D9B2D0E94BC1A862E0C
:10115000972EA82EB92EF0E1EF0EF11C0E151F05EB
:10116000F9F6862F992DAA2DBB2DF6018083918348
:10117000A283B383F4E04F0E511C24E0620E711C75
:101180006214730409F0BFCF89819A8140969A83D3
:101190008983EB81FC817096FC83EB8321E138E04D
:1011A0002817390709F0A7CF81E596E09A8389834C
:1011B0000F2EFCEA2F2EF3E03F2EF02D0F2EFCE930
:1011C0006F2EF3E07F2EF02D49805A80620183015B
:1011D000005C1F4F7301ED81FE81812C912CA12CAD
:1011E000B12CFC83EB83EB81FC8161917191819146
:1011F0009191FC83EB83F7012081318142815381FE
:101200000E941E1D9B01AC01682D792D8A2D9B2DFE
:101210000E94BC1A862E972EA82EB92EF0E1EF0E52
:10122000F11CE016F106F9F6862F992DAA2DBB2D9B
:10123000F60180839183A283B383F4E04F0E511CA7
:1012400024E0620E711C6214730409F0BFCF8D811B
:101250009E8140969E838D83E981FA817096FA8300
:10126000E98321E138E02817390709F0A7CF84E0A6
:1012700090E09093920880939108909394088093C3
:101280009308909396088093950828960FB6F89443
:10129000DEBF0FBECDBFDF91CF911F910F91FF90A9
:1012A000EF90DF90CF90BF90AF909F908F907F9006
:1012B0006F905F904F903F902F9008952F923F92A4
:1012C0004F925F926F927F928F929F92AF92BF9256
:1012D000CF92DF92EF92FF920F931F93CF93DF9302
:1012E000CDB7DEB7CC58D1400FB6F894DEBF0FBEF5
:1012F000CDBF3ADD80E4FE013196DF01282F1D923B
:101300002A95E9F79E012F5B3F4FD901982F1D9237
:101310009A95E9F7205C3F4FD901982F1D929A9535
:10132000E9F7205C3F4FD901982F1D929A95E9F774
:10133000205C3F4FD901982F1D929A95E9F7205CC8
:101340003F4FD9011D928A95E9F7109296081092A5
:1013500095082CE533E0C957DE4F39832883C758F9
:10136000D140C757DE4FF983E883C958D140CF57E2
:10137000DE4FF983E883C158D1400F2EF1EA2F2EBA
:10138000F7E03F2EF02D0F2EF1E94F2EF7E05F2E04
:10139000F02DCF57DE4F68807980C158D140CD57AE
:1013A000DE4F79826882C358D140720130E4E30E87
:1013B000F11C8201C957DE4FC880D980C758D1407F
:1013C000812C912CA12CB12CD6016D917D918D9108
:1013D0009D916D01F80120813181428153810E94EC
:1013E0001E1D9B01AC01682D792D8A2D9B2D0E941D
:1013F000BC1A862E972EA82EB92E005F1F4F0E15F1
:101400001F0511F7862F992DAA2DBB2DCD57DE4F25
:10141000E881F981C358D14080839183A283B3834B
:10142000F4E06F0E711C24E0420E511C4214530470
:1014300009F0B5CFC957DE4F88819981C758D1408F
:101440004096C957DE4F99838883C758D140CF57FC
:10145000DE4FA881B981C158D1405096CF57DE4F99
:10146000B983A883C158D140ECE9F3E0E817F90744
:1014700009F089CF0F2EF1E44F2EF6E05F2EF02D0C
:101480000F2EF1E5AF2EF6E0BF2EF02D0F2EFCE172
:10149000CF2EF2E0DF2EF02D212CCB57DE4FB9827C
:1014A000A882C558D140C757DE4F88809980C95857
:1014B000D140CF57DE4F59824882C158D1402CE0ED
:1014C00032E0CD57DE4F2883C358D140C957DE4F95
:1014D0003883C758D140C757DE4FD982C882C95810
:1014E000D14089017401B12C312C612C722CD701AF
:1014F0006D917D918D919D917D01F80121913191A9
:10150000419151918F010E941E1D9B01AC016B2DD9
:10151000732D862D972D0E94BC1AB62E372E682E5D
:10152000792EC016D10619F7862F932DA62DB72D2B
:10153000CF57DE4FE881F981C158D1408083918334
:10154000A283B383F4E04F0E511C20E1820E911C64
:10155000CB57DE4F88819981C558D14084159505B8
:1015600009F0A7CFC757DE4F28803980C958D1402E
:1015700084E090E0909392088093910881E090E05D
:10158000909394088093930810929608109295086F
:10159000ACE1B3E0CB57DE4FB983A883C558D14047
:1015A000FE01EF5BFF4FC557DE4FF983E883CB5851
:1015B000D140C757DE4FF983E883C958D1400F2E79
:1015C000F1E54F2EF7E05F2EF02DC757DE4F688014
:1015D0007980C958D140CF57DE4F79826882C1588F
:1015E000D1407201F0E4EF0EF11C8201CB57DE4FC7
:1015F000C880D980C558D140812C912CA12CB12C08
:10160000D6016D917D918D919D916D01F8012081A3
:101610003181428153810E941E1D9B01AC01682DC6
:10162000792D8A2D9B2D0E94BC1A862E972EA82ECE
:10163000B92E005F1F4FE016F10611F7862F992D86
:10164000AA2DBB2DCF57DE4FE881F981C158D1407B
:1016500080839183A283B383F4E06F0E711C24E036
:10166000420E511C81E697E08415950509F0B3CF31
:10167000CB57DE4FA881B981C558D1405096CB5782
:10168000DE4FB983A883C558D140C757DE4FE881E4
:10169000F981C958D1407096C757DE4FF983E88366
:1016A000C958D140AC55B34009F089CF0F2EF1E3B2
:1016B000CF2EF6E0DF2EF02D0F2EF1E44F2EF6E0C8
:1016C0005F2EF02DC557DE4FA880B980CB58D14092
:1016D000CF57DE4FD982C882C158D140CD57DE4F97
:1016E0000881C358D140C957DE4F1881C758D1402F
:1016F0007501612C712C812C912CD7016D917D91FC
:101700008D919D917D01F8012191319141915191EE
:101710008F010E941E1D9B01AC01662D772D882D27
:10172000992D0E94BC1A662E772E882E992E20168F
:10173000310619F7862F972DA82DB92DCF57DE4FDB
:10174000E881F981C158D14080839183A283B3831A
:10175000F4E0CF0ED11C20E1A20EB11C4C145D04AC
:1017600009F0B6CF84E090E09093920880939108BE
:1017700081E090E0909394088093930810929608EB
:10178000109295088CED92E0CB57DE4F99838883B9
:10179000C558D140DE01AF57BF4FC557DE4FB983A3
:1017A000A883CB58D140C757DE4FB983A883C95807
:1017B000D1400F2EF1E14F2EF7E05F2EF02DC757ED
:1017C000DE4F68807980C958D140CF57DE4F79828B
:1017D0006882C158D1407201B0E4EB0EF11C820165
:1017E000CB57DE4FC880D980C558D140812C912C71
:1017F000A12CB12CF60161917191819191916F01B0
:10180000D8012D913D914D915C910E941E1D9B012F
:10181000AC01682D792D8A2D9B2D0E94BC1A862E35
:10182000972EA82EB92E005F1F4FE016F10611F774
:10183000862F992DAA2DBB2DCF57DE4FE881F98138
:10184000C158D14080839183A283B383F4E06F0EAB
:10185000711C24E0420E511C81E297E0841595052D
:1018600009F0B3CFCB57DE4FA881B981C558D1401D
:101870005096CB57DE4FB983A883C558D140C75780
:10188000DE4FE881F981C958D1407096C757DE4FC5
:10189000F983E883C958D140AC51B34009F089CFEE
:1018A0000F2EF1E2CF2EF6E0DF2EF02D0F2EF1E31A
:1018B0004F2EF6E05F2EF02DC557DE4FA880B98081
:1018C000CB58D140CF57DE4FD982C882C158D140C2
:1018D000CD57DE4F0881C358D140C957DE4F18811C
:1018E000C758D1407501612C712C812C912CD701E6
:1018F0006D917D918D919D917D01F80121913191A5
:10190000419151918F010E941E1D9B01AC01662DDA
:10191000772D882D992D0E94BC1A662E772E882E41
:10192000992E2016310619F7862F972DA82DB92D3F
:10193000CF57DE4FE881F981C158D1408083918330
:10194000A283B383F4E0CF0ED11C20E1A20EB11C20
:10195000C414D50409F0B6CF84E090E090939208C7
:101960008093910881E090E090939408809393088D
:1019700010929608109295088CE992E0CB57DE4FB2
:1019800099838883C558D140DE01AF53BF4FC557F7
:10199000DE4FB983A883CB58D140C757DE4FB983F8
:1019A000A883C958D1400F2EF1ED4F2EF6E05F2EDF
:1019B000F02DC757DE4F68807980C958D140CF5786
:1019C000DE4F79826882C158D1407201B0E4EB0EDB
:1019D000F11C8201CB57DE4FC880D980C558D14059
:1019E000812C912CA12CB12CF601619171918191E6
:1019F00091916F01D8012D913D914D915C910E9483
:101A00001E1D9B01AC01682D792D8A2D9B2D0E94F6
:101A1000BC1A862E972EA82EB92E005F1F4F0E15CA
:101A20001F0511F7862F992DAA2DBB2DCF57DE4FFD
:101A3000E881F981C158D14080839183A283B38327
:101A4000F4E06F0E711C24E0420E511C81EE96E012
:101A50008415950509F0B3CFCB57DE4FA881B98126
:101A6000C558D1405096CB57DE4FB983A883C5588F
:101A7000D140C757DE4FE881F981C958D1407096EF
:101A8000C757DE4FF983E883C958D140AC5DB240F7
:101A900009F089CF0F2EF1E1CF2EF6E0DF2EF02DE9
:101AA0000F2EF1E24F2EF6E05F2EF02DC557DE4FE0
:101AB000A880B980CB58D140CF57DE4FD982C88299
:101AC000C158D140CD57DE4F0881C358D140C957C6
:101AD000DE4F1881C758D1407501612C712C812CC3
:101AE000912CD7016D917D918D919D917D01F80192
:101AF00021913191419151918F010E941E1D9B01B5
:101B0000AC01662D772D882D992D0E94BC1A662E6A
:101B1000772E882E992E2016310619F7862F972DAD
:101B2000A82DB92DCF57DE4FE881F981C158D1409A
:101B300080839183A283B383F4E0CF0ED11C20E194
:101B4000A20EB11C4C145D0409F0B6CF84E090E005
:101B5000909392088093910881E090E0909394088C
:101B60008093930810929608109295088CE592E065
:101B7000CB57DE4F99838883C558D140DE01AF5FD4
:101B8000BE4FC557DE4FB983A883CB58D140C75746
:101B9000DE4FB983A883C958D1400F2EF1E94F2EEB
:101BA000F6E05F2EF02DC757DE4F68807980C95868
:101BB000D140CF57DE4F79826882C158D14072013F
:101BC000B0E4EB0EF11C8201CB57DE4FC880D98008
:101BD000C558D140812C912CA12CB12CF6016191DA
:101BE0007191819191916F01D8012D913D914D910C
:101BF0005C910E941E1D9B01AC01682D792D8A2DE0
:101C00009B2D0E94BC1A862E972EA82EB92E005FFF
:101C10001F4F0E151F0511F7862F992DAA2DBB2DCD
:101C2000CF57DE4FE881F981C158D140808391833D
:101C3000A283B383F4E06F0E711C24E0420E511CAA
:101C400081EA96E08415950509F0B3CFCB57DE4FB6
:101C5000A881B981C558D1405096CB57DE4FB98382
:101C6000A883C558D140C757DE4FE881F981C958CC
:101C7000D1407096C757DE4FF983E883C958D140E9
:101C8000AC59B24009F089CF0F2EF1E0CF2EF6E02B
:101C9000DF2EF02D0F2EF1E14F2EF6E05F2EF02D0E
:101CA000C557DE4FA880B980CB58D140CF57DE4F03
:101CB000D982C882C158D140CD57DE4F0881C35860
:101CC000D140C957DE4F1881C758D1407501612CEA
:101CD000712C812C912CD7016D917D918D919D91CD
:101CE0007D01F80121913191419151918F010E9423
:101CF0001E1D9B01AC01662D772D882D992D0E940C
:101D0000BC1A662E772E882E992E2016310619F7CA
:101D1000862F972DA82DB92DCF57DE4FE881F98159
:101D2000C158D14080839183A283B383F4E0CF0E66
:101D3000D11C20E1A20EB11C4C145D0409F0B6CFF9
:101D400084E090E0909392088093910881E090E085
:101D50009093940880939308109296081092950897
:101D60008CE192E0CB57DE4F99838883C558D140F0
:101D7000DE01AF5BBE4FC557DE4FB983A883CB589A
:101D8000D140C757DE4FB983A883C958D1400F2E21
:101D9000F1E54F2EF6E05F2EF02DC757DE4F68803D
:101DA0007980C958D140CF57DE4F79826882C158B7
:101DB000D1407201B0E4EB0EF11C8201CB57DE4F33
:101DC000C880D980C558D140812C912CA12CB12C30
:101DD000F60161917191819191916F01D8012D91DD
:101DE0003D914D915C910E941E1D9B01AC01682D9F
:101DF000792D8A2D9B2D0E94BC1A862E972EA82EF7
:101E0000B92E005F1F4FE016F10611F7862F992DAE
:101E1000AA2DBB2DCF57DE4FE881F981C158D140A3
:101E200080839183A283B383F4E06F0E711C24E05E
:101E3000420E511C81E696E08415950509F0B3CF5A
:101E4000CB57DE4FA881B981C558D1405096CB57AA
:101E5000DE4FB983A883C558D140C757DE4FE8810C
:101E6000F981C958D1407096C757DE4FF983E8838E
:101E7000C958D140AC55B24009F089CF0F2EF1EFCF
:101E8000CF2EF5E0DF2EF02D0F2EF1E04F2EF6E0F5
:101E90005F2EF02DC557DE4FA880B980CB58D140BA
:101EA000CF57DE4FD982C882C158D140CD57DE4FBF
:101EB0000881C358D140C957DE4F1881C758D14057
:101EC0007501612C712C812C912CD7016D917D9124
:101ED0008D919D917D01F801219131914191519117
:101EE0008F010E941E1D9B01AC01662D772D882D50
:101EF000992D0E94BC1A662E772E882E992E2016B8
:101F0000310619F7862F972DA82DB92DCF57DE4F03
:101F1000E881F981C158D14080839183A283B38342
:101F2000F4E0CF0ED11C20E1A20EB11C4C145D04D4
:101F300009F0B6CF84E090E09093920880939108E6
:101F400021E030E030939408209393089093960812
:101F500080939508C457DE4F0FB6F894DEBF0FBECE
:101F6000CDBFDF91CF911F910F91FF90EF90DF9048
:101F7000CF90BF90AF909F908F907F906F905F9029
:101F80004F903F902F9008954F925F926F927F9263
:101F90008F929F92AF92BF92CF92DF92EF92FF9279
:101FA000CF93DF93CDB7DEB7C454D1090FB6F89401
:101FB000DEBF0FBECDBFE1E4F6E0C080D180E2809D
:101FC000F380448055806680778080859185A285E6
:101FD000B3858D839E83AF83B887E1E3F6E080818C
:101FE0009181A281B38189839A83AB83BC838481ED
:101FF0009581A681B78189879A87AB87BC878085C1
:102000009185A285B38589A79AA7ABA7BCA7E1E272
:10201000F6E080819181A281B3818D879E87AF8711
:10202000B88B84809580A680B78080859185A285B5
:10203000B3858DA79EA7AFA7B8ABE1E1F6E080819D
:102040009181A281B381898B9A8BAB8BBC8B84816C
:102050009581A681B7818D8B9E8BAF8BB88F808544
:102060009185A285B38589AB9AABABABBCABE1E004
:10207000F6E080819181A281B381898F9A8FAB8FA5
:10208000BC8F84819581A681B7818D8F9E8FAF8F04
:10209000B8A380859185A285B3858DAB9EABAFAB90
:1020A000B8AFE1EFF5E080819181A281B38189A38E
:1020B0009AA3ABA3BCA384819581A681B7818DA38C
:1020C0009EA3AFA3B8A780859185A285B38589AF6C
:1020D0009AAFABAFBCAFA3019201C701B6010E949A
:1020E0004F1B0E94201B21966CAF7DAF8EAF9FAF20
:1020F0002197A7019601C701B6010E941E1D6B0121
:102100007C01A7019601C301B2010E94BC1A0E9482
:102110008B1D25966CAF7DAF8EAF9FAF259728EBBB
:102120003EE345E853E4C701B6010E94BB1A6B01C8
:102130007C01A3019201C301B2010E941E1D9B01FB
:10214000AC01C701B6010E94BC1A6B017C012D8154
:102150003E814F815885CA01B9010E941E1D9B0115
:10216000AC01C701B6010E94BC1A6B017C012AE9CF
:1021700039E949E950E425966CAD7DAD8EAD9FAD52
:1021800025970E941E1D9B01AC01C701B6010E944C
:102190004F1B0E94AD1A6B017C0120E030E044E34C
:1021A00053E421966CAD7DAD8EAD9FAD21970E941D
:1021B0001E1D2BED3FE049E450E40E944F1B6D8350
:1021C0007E838F83988720E030E044E353E4C701A7
:1021D000B6010E941E1D2BED3FE049E450E40E9431
:1021E0004F1B9B01AC016D817E818F8198850E9480
:1021F000BB1A6093ED057093EE058093EF05909305
:10220000F00529813A814B815C8169857A858B85CE
:102210009C850E944F1B0E94201B6D837E838F83B1
:10222000988729813A814B815C81CA01B9010E945A
:102230001E1D6B017C0129853A854B855C85CA0191
:10224000B9010E941E1D9B01AC01C701B6010E948D
:10225000BC1A6B017C010E948B1D69837A838B837E
:102260009C8329A53AA54BA55CA5CA01B9010E948A
:102270001E1DA70196010E94BC1A28EB3EE345E80B
:1022800053E40E94BB1A6B017C012AE939E949E950
:1022900050E469817A818B819C810E941E1D9B0183
:1022A000AC01C701B6010E944F1B0E94AD1A6B0121
:1022B0007C0120E030E044E353E46D817E818F8136
:1022C00098850E941E1D2BED3FE049E450E40E94DA
:1022D0004F1B69837A838B839C8320E030E044E347
:1022E00053E4C701B6010E941E1D2BED3FE049E4F7
:1022F00050E40E944F1B9B01AC0169817A818B8164
:102300009C810E94BB1A6093E9057093EA05809353
:10231000EB059093EC05A50194016D857E858F8575
:1023200098890E944F1B0E94201B69837A838B83AC
:102330009C832D853E854F855889CA01B9010E942D
:102340001E1D6B017C01A7019601C301B2010E9411
:10235000BC1A0E948B1D69877A878B879C8728EB24
:102360003EE345E853E4C701B6010E94BB1A6B0186
:102370007C01A5019401C501B4010E941E1D9B01B1
:10238000AC01C701B6010E94BC1A6B017C012DA5EE
:102390003EA54FA558A9CA01B9010E941E1D9B0167
:1023A000AC01C701B6010E94BC1A6B017C012AE98D
:1023B00039E949E950E469857A858B859C850E94D5
:1023C0001E1D9B01AC01C701B6010E944F1B0E945C
:1023D000AD1A6B017C0120E030E044E353E46981F5
:1023E0007A818B819C810E941E1D2BED3FE049E488
:1023F00050E40E944F1B4B015C0120E030E044E3BD
:1024000053E4C701B6010E941E1D2BED3FE049E4D5
:1024100050E40E944F1B9B01AC01C501B4010E9416
:10242000BB1A6093E5057093E6058093E7059093EA
:10243000E80529893A894B895C896D897E898F896C
:10244000988D0E944F1B0E94201B4B015C01298923
:102450003A894B895C89CA01B9010E941E1D6B0132
:102460007C012D893E894F89588DCA01B9010E948E
:102470001E1D9B01AC01C701B6010E94BC1A6B0175
:102480007C010E948B1D69837A838B839C8329A99D
:102490003AA94BA95CA9CA01B9010E941E1DA70156
:1024A00096010E94BC1A28EB3EE345E853E40E94E3
:1024B000BB1A6B017C012AE939E949E950E46981D9
:1024C0007A818B819C810E941E1D9B01AC01C701FA
:1024D000B6010E944F1B0E94AD1A6B017C0120E0E7
:1024E00030E044E353E4C501B4010E941E1D2BED0E
:1024F0003FE049E450E40E944F1B4B015C0120E0A7
:1025000030E044E353E4C701B6010E941E1D2BEDE9
:102510003FE049E450E40E944F1B9B01AC01C50120
:10252000B4010E94BB1A6093E1057093E2058093A9
:10253000E3059093E4052D8D3E8D4F8D58A1698D57
:102540007A8D8B8D9C8D0E944F1B0E94201B6B01EE
:102550007C01298D3A8D4B8D5C8DCA01B9010E9499
:102560001E1D4B015C01A5019401C301B2010E9433
:10257000BC1A0E948B1D2B013C0128EB3EE345E871
:1025800053E4C501B401F7D74B015C012D8D3E8D9D
:102590004F8D58A1CA01B9010E941E1D9B01AC01BB
:1025A000C501B401E9D74B015C012DA93EA94FA992
:1025B00058ADCA01B9010E941E1D9B01AC01C501A5
:1025C000B401DAD74B015C012AE939E949E950E461
:1025D000C301B2010E941E1D9B01AC01C501B401E3
:1025E0000E944F1BBAD74B015C0120E030E044E36E
:1025F00053E4C701B6010E941E1D2BED3FE049E4E4
:1026000050E40E944F1B6B017C0120E030E044E36A
:1026100053E4C501B4010E941E1D2BED3FE049E4C7
:1026200050E40E944F1B9B01AC01C701B601A3D728
:102630006093DD057093DE058093DF059093E005E0
:1026400029A13AA14BA15CA16DA17EA18FA198A562
:102650000E944F1BF5D76B017C0129A13AA14BA128
:102660005CA1CA01B9010E941E1D4B015C012DA194
:102670003EA14FA158A5CA01B9010E941E1D9B0190
:10268000AC01C501B40178D74B015C010E948B1DE0
:102690002B013C0129AD3AAD4BAD5CADCA01B9018E
:1026A0000E941E1DA501940167D728EB3EE345E873
:1026B00053E461D74B015C012AE939E949E950E467
:1026C000C301B2010E941E1D9B01AC01C501B401F2
:1026D000E6D743D74B015C0120E030E044E353E40C
:1026E000C701B6010E941E1D2BED3FE049E450E4F6
:1026F000D6D76B017C0120E030E044E353E4C50110
:10270000B4010E941E1D2BED3FE049E450E4C7D701
:102710009B01AC01C701B6012ED76093D905709318
:10272000DA058093DB059093DC05CC5BDF4F0FB6B9
:10273000F894DEBF0FBECDBFDF91CF91FF90EF9039
:10274000DF90CF90BF90AF909F908F907F906F90D1
:102750005F904F9008956F927F928F929F92AF9269
:10276000BF92CF92DF92EF92FF920F931F93CF937E
:10277000DF93CDB7DEB7EA89FB89AC89BD899E8836
:102780008F88788C698C6F927F928F929F92BF9383
:10279000AF93FF93EF930E9424040E9410060E94BF
:1027A000B4060E945E09F0DB6091ED057091EE05C4
:1027B0008091EF059091F0050E94D8016091E905A4
:1027C0007091EA058091EB059091EC050E943A0228
:1027D0006091E5057091E6058091E7059091E80527
:1027E0000E949C026091E1057091E2058091E305F1
:1027F0009091E4050E94FE026091DD057091DE0576
:102800008091DF059091E0050E9460036091D905F9
:102810007091DA058091DB059091DC050E94C2037E
:102820006091ED057091EE058091EF059091F005B6
:102830000FEB18E022E042E00E94211E6091E905C2
:102840007091EA058091EB059091EC0507EB18E09B
:1028500022E042E00E94211E6091E5057091E605AC
:102860008091E7059091E8050FEA18E022E042E048
:102870000E94211E6091E1057091E2058091E305BF
:102880009091E40507EA18E022E042E00E94211E50
:102890006091DD057091DE058091DF059091E00586
:1028A0000FE918E022E042E00E94211E6091D90564
:1028B0007091DA058091DB059091DC0507E918E05D
:1028C00022E042E00E94211E0FB6F894DEBF0FBE48
:1028D000CDBFDF91CF911F910F91FF90EF90DF90CF
:1028E000CF90BF90AF909F908F907F906F90089502
:1028F0001092B90088E48093B800089594EA909308
:10290000BC00ECEBF0E090819923ECF79091B900DA
:10291000987F903199F48093BB0084E88093BC0049
:10292000ECEBF0E080818823ECF78091B900887FA0
:10293000803431F0803231F083E0089580E00895F2
:1029400081E0089582E0089584E98093BC00ECEB77
:10295000F0E0808184FDFDCF0895BF92CF92DF9299
:10296000EF92FF920F931F93CF93DF93B82ECCEB90
:10297000D0E009EB10E00F2EF4EADF2EF02D0F2E41
:10298000FBEBEF2EF12CF02D0F2EF4E8CF2EF02DD7
:10299000D88288818823ECF7F8018081887F88308D
:1029A000B9F7F701B082C88288818823ECF7F80173
:1029B0008081887F883111F0C7DFEACFDF91CF9126
:1029C0001F910F91FF90EF90DF90CF90BF900895EF
:1029D0008093BB0084E88093BC00ECEBF0E0808146
:1029E0008823ECF78091B900887F883221F080330A
:1029F00021F082E0089580E0089581E0089584EC5C
:102A00008093BC00ECEBF0E080818823ECF78091B0
:102A1000BB00089584E88093BC00ECEBF0E080817B
:102A20008823ECF78091BB0008952FEF82E597E0B3
:102A3000215080409040E1F700C0000080ED8DDF24
:102A400089E1C6DF87E0C4DF7FDF80ED86DF8BE6CC
:102A5000BFDF81E0BDDF78DF80ED7FDF8AE1B8DFB7
:102A600080E0B6DF71DF80ED78DF8BE1B1DF88E1F8
:102A7000AFDF6ADF80ED71DF88E3AADF81E0A8DFE6
:102A800063CF089580ED69DF8BE3A2DF81ED36CF60
:102A90000895CF93F7DFB3DFC82FB1DF2C2F30E0DD
:102AA000322F2227282B3093D8052093D705A7DF74
:102AB000C82FA5DF2C2F30E0322F2227282B309370
:102AC000D6052093D5059BDFC82F99DF2C2F30E04A
:102AD000322F2227282B3093D4052093D3058FDF64
:102AE000C82F8DDF2C2F30E0322F2227282B309358
:102AF000CC052093CB0583DFC82F81DF2C2F30E05E
:102B0000322F2227282B3093D2052093D10577DF4F
:102B1000C82F75DF2C2F30E0322F2227282B30933F
:102B2000D0052093CF056BDFC82F74DF2C2F30E04A
:102B3000322F2227282B3093CE052093CD0504DF9A
:102B4000CF9108954F925F926F927F928F929F9252
:102B5000AF92BF92CF92DF92EF92FF920F931F93AB
:102B6000CF93DF9300D01F92CDB7DEB792DF609195
:102B7000D5057091D605072E000C880B990B2AD627
:102B80004B015C016091D7057091D805072E000CB0
:102B9000880B990B1FD66B017C016091D305709156
:102BA000D405072E000C880B990B14D69B01AC01A1
:102BB00045D769837A838B839C83A7019601C701DC
:102BC000B6013CD72B013C0129813A814B815C81C4
:102BD000C301B201D1D49FD79B01AC01C501B4019F
:102BE0005ED52ED52B013C01A5019401C501B40190
:102BF00025D729813A814B815C81BED48CD79B013A
:102C0000AC01C701B6014BD51BD54B015C018091CE
:102C1000D1059091D20563E870E0E4D78091B405C6
:102C20009091B505680F791F072E000C880B990B42
:102C3000D1D52DEC3CEC4CEC5DE300D76B017C0175
:102C400023EA3CE445E652E4C301B201F7D626E6A6
:102C500036E646E65FE3F2D69B01AC01C701B6015A
:102C60008BD485D56B017C017093BB056093BA054D
:102C70008091CF059091D00563E870E0B3D7809143
:102C8000B2059091B305680F791F072E000C880BD1
:102C9000990BA0D52DEC3CEC4CEC5DE3CFD62B0191
:102CA0003C0123EA3CE445E652E4C501B401C6D642
:102CB00026E636E646E65FE3C1D69B01AC01C301DA
:102CC000B2015AD4905853D54B015C017093B905A9
:102CD0006093B8058091CD059091CE0563E870E0D2
:102CE00081D78091B0059091B105680F791F7093DD
:102CF000B7056093B605D092B505C092B405909221
:102D0000B3058092B2057093B1056093B005B6012A
:102D1000DD0C880B990B5ED506EC15E020E042E057
:102D200090D76091B8057091B905072E000C880BFB
:102D3000990B50D501EC15E020E042E082D760917C
:102D4000B6057091B705072E000C880B990B42D57C
:102D50000CEB15E020E042E074D70F900F900F903D
:102D60000F90DF91CF911F910F91FF90EF90DF9027
:102D7000CF90BF90AF909F908F907F906F905F901B
:102D80004F900895E0ECF0E080818E7F8083808119
:102D900082608083E1ECF0E080811082808188692C
:102DA0008083E2ECF0E08081108280818660808305
:102DB0008FEC90E09093C5008093C4000895CF936A
:102DC000DF93FC012081222369F0DC011196E0EC05
:102DD000F0E0C6ECD0E0908195FFFDCF28832D91E7
:102DE0002111F9CFE0ECF0E0808185FFFDCFDF918C
:102DF000CF910895ECE7F0E080818F7D8083808122
:102E00008F778083808180648083EAE7F0E080812F
:102E10008760808380818068808380818F7D8083CC
:102E20008081877F8083ABE7B0E08C918F7B8C9330
:102E30008C911C92AEE7B0E08C918C93ADE7B0E042
:102E40008C918C93808180648083808184FFFDCF0E
:102E5000EAE7F0E080818061808308951F920F92FD
:102E60000FB60F9211240BB60F928F929F92AF92D2
:102E7000BF92CF92DF92EF92FF920F931F932F9307
:102E80003F934F935F936F937F938F939F93AF93F2
:102E9000BF93CF93DF93EF93FF93E5E0F1E0908151
:102EA00080E48927808310929005109291051092FA
:102EB0009205109293056091BA057091BB05072E9B
:102EC000000C880B990B86D49B01AC0160E070E08C
:102ED000CB0151D36B017C01C4E8D5E068837983D1
:102EE0008A839B832091A8053091A9054091AA056A
:102EF0005091AB056C817D818E819F819FD54B0167
:102F00005C012091A4053091A5054091A605509142
:102F1000A705C701B60192D59B01AC01C501B4015B
:102F20002BD36B017C012091AC053091AD05409114
:102F3000AE055091AF05688579858A859B857ED5DC
:102F40009B01AC01C701B60117D3CCE7D5E02C81BA
:102F50003D814E815F8110D3688379838A839B830F
:102F60000CE915E022E042E06CD6C880D980EA8006
:102F7000FB8020E030E040E451E4C701B60153D5C6
:102F800018166CF480E090E0A0E4B1E480937C0536
:102F900090937D05A0937E05B0937F0515C020E03A
:102FA00030E040E451ECC701B60172D3882364F4E9
:102FB00080E090E0A0E4B1EC80937C0590937D05E7
:102FC000A0937E05B0937F05E4E8F5E084819581C8
:102FD000A681B78180879187A287B38780819181FD
:102FE000A281B38184839583A683B783ECE7F5E060
:102FF00080819181A281B38184839583A683B783E5
:10300000109278051092790510927A0510927B053E
:103010006091B8057091B905072E000C880B990BCB
:10302000D9D39B01AC0160E070E0CB01A4D26B016D
:103030007C01CCE6D5E0688379838A839B832091E9
:10304000A8053091A9054091AA055091AB056C8166
:103050007D818E819F81F2D44B015C012091A4057A
:103060003091A5054091A6055091A705C701B6016D
:10307000E5D49B01AC01C501B4017ED26B017C019A
:103080002091AC053091AD054091AE055091AF0552
:10309000688579858A859B85D1D49B01AC01C70160
:1030A000B6016AD2C4E6D5E02C813D814E815F81B4
:1030B00063D2688379838A839B8304E915E022E0E5
:1030C00042E0BFD5C880D980EA80FB8020E030E0B4
:1030D00040E451E4C701B601A6D418166CF480E0B0
:1030E00090E0A0E4B1E48093640590936505A0931B
:1030F0006605B093670515C020E030E040E451EC70
:10310000C701B601C5D2882364F480E090E0A0E452
:10311000B1EC8093640590936505A0936605B09328
:103120006705ECE6F5E084819581A681B78180870B
:103130009187A287B38780819181A281B3818483A3
:103140009583A683B783E4E6F5E080819181A2812F
:10315000B38184839583A683B783FF91EF91DF9139
:10316000CF91BF91AF919F918F917F916F915F911F
:103170004F913F912F911F910F91FF90EF90DF9012
:10318000CF90BF90AF909F908F900F900BBE0F90FD
:103190000FBE0F901F901895E4E0F1E080818064ED
:1031A0008083E1E8F0E080818F7E80838081886089
:1031B0008083A0E8B0E08C918D7F8C938C918E7F82
:1031C0008C9380818B7F80838081826080838081EB
:1031D0008160808383EC99E09093890080938800DC
:1031E000EFE6F0E08081826080830895AF92BF9225
:1031F000CF92DF92EF92FF920F931F93A3DCA090E8
:103200007C05B0907D05C0907E05D0907F051F9213
:103210001F921F921F92E4E6F5E083818F938281D3
:103220008F9381818F9380818F93E12CF12C870183
:10323000A8019701C801B7018EDA8DB79EB708962D
:103240000FB6F8949EBF0FBE8DBF1F910F91FF90D8
:10325000EF90DF90CF90BF90AF900895F8940E94C8
:103260005C0190DD45DBE1DB0E946C010E94B9014D
:10327000C1DD92DF78941F921F921F921F921F92BE
:103280001F921F921F92A12CB12C6501860175011E
:10329000A6019501C601B5015EDA2FEF83ED90E33B
:1032A000215080409040E1F700C000008DB79EB7EC
:1032B00008960FB6F8949EBF0FBE8DBF97DF84E3CC
:1032C00095E07DDD86EC95E07ADD8DE395E077DDB8
:1032D0008CE995E074DD89E495E071DD81EC95E0A1
:1032E0006EDD84E595E06BDD84E995E068DD80E6E0
:1032F00095E065DDE3CF4F925F926F927F928F9260
:103300009F92AF92BF92CF92DF92EF92FF92CF93B4
:10331000DF93C0903005D0903105E0903205F090F9
:103320003305C701B601B8D1CCEDD4E020E030E0E0
:1033300040E051E483D36C877D878E879F87C701E8
:10334000B601DFD320E030E040E051E477D36C8F6A
:103350007D8F8E8F9F8FC0902C05D0902D05E09093
:103360002E05F0902F05C701B60196D1CCE9D4E027
:1033700020E030E040E051E461D36C877D878E87A8
:103380009F87C701B601BDD320E030E040E051E4A3
:1033900055D36C8F7D8F8E8F9F8FC0902805D090D6
:1033A0002905E0902A05F0902B05C701B60174D1DC
:1033B000CCE5D4E020E030E040E051E43FD36C873E
:1033C0007D878E879F87C701B6019BD320E030E0C1
:1033D00040E051E433D36C8F7D8F8E8F9F8FC090F0
:1033E0002405D0902505E0902605F0902705C7011B
:1033F000B60152D1CCE1D4E020E030E040E051E42D
:103400001DD36C877D878E879F87C701B60179D3CF
:1034100020E030E040E051E411D36C8F7D8F8E8F3F
:103420009F8FC0902005D0902105E0902205F0905C
:103430002305C701B60130D1CCEDD3E020E030E068
:1034400040E051E4FBD26C877D878E879F87C70160
:10345000B60157D320E030E040E051E4EFD26C8F6A
:103460007D8F8E8F9F8FC0901C05D0901D05E090A2
:103470001E05F0901F05C701B6010ED1CCE9D3E0BF
:1034800020E030E040E051E4D9D26C877D878E8720
:103490009F87C701B60135D320E030E040E051E41A
:1034A000CDD26C8F7D8F8E8F9F8FC0900002D09079
:1034B0000102E0900202F0900302C092AC05D092AB
:1034C000AD05E092AE05F092AF05809008029090B5
:1034D0000902A0900A02B0900B022AE037ED43E205
:1034E0005CE3609104027091050280910602909164
:1034F0000702A4D2A50194013ED02B013C01A701F3
:103500009601C701B60138D09B01AC01C301B201DD
:1035100032D06093A8057093A9058093AA05909373
:10352000AB05A5019401C701B60126D06093A4059F
:103530007093A5058093A6059093A705DF91CF9181
:10354000FF90EF90DF90CF90BF90AF909F908F90C3
:103550007F906F905F904F9008959F939F7775D164
:103560000F9000203AF49058A2EA2AED3FE049E497
:1035700050E413D00DC25058BB27AA270ED008C262
:10358000D1D130F0D6D120F031F49F3F11F41EF4A8
:10359000A1C10EF4E095E7FB97C1E92F1BD280F3A0
:1035A000BA17620773078407950718F071F49EF540
:1035B00033C20EF4E0950B2EBA2FA02D0B01B901EA
:1035C00090010C01CA01A0011124FF27591B99F099
:1035D000593F50F4503E68F11A16F040A22F232FA5
:1035E000342F4427585FF3CF469537952795A795F5
:1035F000F0405395C9F77EF41F16BA0B620B730B9C
:10360000840BBAF09150A1F0FF0FBB1F661F771F0C
:10361000881FC2F70EC0BA0F621F731F841F48F4C1
:10362000879577956795B795F7959E3F08F0B3CF47
:103630009395880F08F09927EE0F97958795089531
:10364000DF93DD27B92FBF7740E85FE31616170633
:1036500048075B0710F4D92FEAD19F938F937F938C
:103660006F9397D2E4EEF0E038D192D12F913F9151
:103670004F915F91EFD1DD2349F09058A2EA2AEDF6
:103680003FE049EC5FE3D0785D2787DFDF9180C1C1
:10369000F7D008F481E0089554D1E3958AC10CD0A5
:1036A00077C147D140F03ED130F021F45F3F19F0AF
:1036B0000BC15111B2C10EC18DD198F39923C9F339
:1036C0005523B1F3951B550BBB27AA276217730728
:1036D000840738F09F5F5F4F220F331F441FAA1FDC
:1036E000A9F333D00E2E3AF0E0E830D0915050409C
:1036F000E695001CCAF729D0FE2F27D0660F771F4A
:10370000881FBB1F261737074807AB07B0E809F02B
:10371000BB0B802DBF01FF2793585F4F2AF09E3FC0
:10372000510568F0D1C079C15F3FECF3983EDCF3FE
:10373000869577956795B795F7959F5FC9F7880F39
:10374000911D9695879597F90895E1E0660F771F8B
:10375000881FBB1F621773078407BA0720F0621B1C
:10376000730B840BBA0BEE1F88F7E095089504D015
:103770006894B11152C1089535D188F09F5790F0E7
:10378000B92F9927B751A0F0D1F0660F771F881F86
:10379000991F1AF0BA95C9F712C0B13081F03CD127
:1037A000B1E0089539C1672F782F8827B85F39F0C5
:1037B000B93FCCF3869577956795B395D9F73EF4E5
:1037C00090958095709561957F4F8F4F9F4F08958D
:1037D000E89409C097FB3EF49095809570956195AB
:1037E0007F4F8F4F9F4F9923A9F0F92F96E9BB2761
:1037F0009395F695879577956795B795F111F8CFDD
:10380000FAF4BB0F11F460FF1BC06F5F7F4F8F4F47
:103810009F4F16C0882311F096E911C0772321F03D
:103820009EE8872F762F05C0662371F096E8862FD5
:1038300070E060E02AF09A95660F771F881FDAF72C
:10384000880F9695879597F90895DF93CF931F93E7
:103850000F938B01EC01E1E1F1E03FD099D09801A9
:10386000AE018B01EC0160E070E080E89FE383DE55
:1038700052D19801AE010F911F91CF91DF91EAC013
:10388000990F0008550FAA0BE0E8FEEF1616170671
:10389000E807F907C0F012161306E407F50798F0D9
:1038A000621B730B840B950B39F40A2661F0232BF2
:1038B000242B252B21F408950A2609F4A140A6956E
:1038C0008FEF811D811D089597F99F6780E870E053
:1038D00060E008959FEF80EC0895DF93CF931F93EE
:1038E0000F93FF92EF92DF927B018C01689405C0E9
:1038F000DA2EEF01AFD0FE01E894A5912591359124
:1039000045915591AEF3EF0148DEFE019701A80104
:10391000DA9479F7DF90EF90FF900F911F91CF919C
:10392000DF91089500240A94161617061806090652
:10393000089500240A941216130614060506089525
:10394000C9CF50D0E8F3E894E0E0BB279F57F0F0F0
:103950002AED3FE049EC06C0EE0FBB0F661F771F54
:10396000881F28F0B23A62077307840728F0B25A1A
:10397000620B730B840BE3959A9572F7803830F4E1
:103980009A95BB0F661F771F881FD2F7904806C114
:10399000092E0394000C11F4882352F0BB0F40F45D
:1039A000BF2B11F460FF04C06F5F7F4F8F4F9F4F9D
:1039B0000895EF93E0FF06C0A2EA2AED3FE049EC4C
:1039C0005FEBEBDDE5DF0F90039401FC9058E9E33A
:1039D000F1E0F7C057FD9058440F551F59F05F3F75
:1039E00071F04795880F97FB991F61F09F3F79F021
:1039F00087950895121613061406551FF2CF4695A3
:103A0000F1DF08C0161617061806991FF1CF869524
:103A10007105610508940895E894BB276627772708
:103A2000CB0197F908952CDF08F48FEF08959B01DF
:103A3000AC0160E070E080E89FE331CE0BD0A8CF0E
:103A400071DF28F076DF18F0952309F03DCF42CFE3
:103A50001124E3CFBFDFA0F3959FD1F3950F50E082
:103A6000551F629FF001729FBB27F00DB11D639F30
:103A7000AA27F00DB11DAA1F649F6627B00DA11DD6
:103A8000661F829F2227B00DA11D621F739FB00D7C
:103A9000A11D621F839FA00D611D221F749F3327EC
:103AA000A00D611D231F849F600D211D822F762F85
:103AB0006A2F11249F5750408AF0E1F088234AF082
:103AC000EE0FFF1FBB1F661F771F881F91505040CE
:103AD000A9F79E3F510570F0F7CE9FCF5F3FECF303
:103AE000983EDCF3869577956795B795F795E795BA
:103AF0009F5FC1F7FE2B880F911D9695879597F9CB
:103B000008959F931EDF0F9007FCEE5F52CF11F4D4
:103B10000EF4E0CE41C066DFD0F39923D9F3CEF3A3
:103B20009F57550B87FF46D00024A0E640EA90013E
:103B300080585695979528F4805C660F771F881FEC
:103B400020F026173707480730F4621B730B840BED
:103B5000202931294A2BA695179407942025312531
:103B60004A2758F7660F771F881F20F02617370758
:103B7000480730F4620B730B840B200D311D411D7F
:103B8000A09581F7B901842F9158880F9695879554
:103B900008959B01AC0152CF9F3F31F0915020F42A
:103BA000879577956795B795880F911D9695879519
:103BB00097F9089591505040660F771F881FD2F7EC
:103BC00008959F938F937F936F93FF93EF939B0140
:103BD000AC0134DFEF91FF9180DE2F913F914F9147
:103BE0005F912CCF97FB072E16F4009406D077FD3B
:103BF00008D00BD007FC05D03EF4909581959F4FDF
:103C00000895709561957F4F0895AA1BBB1B51E1E4
:103C100007C0AA1FBB1FA617B70710F0A61BB70B3C
:103C2000881F991F5A95A9F780959095BC01CD01E1
:103C30000895EE0FFF1F881F8BBF0790F691E02DB0
:103C40001994EF920F931F93CF93DF93E80147FDF1
:103C500002C034E001C034E1042E000C550B57FFC4
:103C600003C0519541955109E32E022F242FAE0137
:103C700007D0CE01DF91CF911F910F91EF90089562
:103C80008F929F92AF92BF92CF92DF92EF92FF926C
:103C90000F931F93CF93DF93CDB7DEB729970FB65E
:103CA000F894DEBF0FBECDBF6A01122FB02E2BE3FA
:103CB000201720F0FF24F394F00E02C02CE3F22E24
:103CC0000F2D27E0AE014F5F5F4F50D1BC014981FE
:103CD000842F8970813031F0E1FC06C0E0FE06C01F
:103CE00090E205C09DE203C09BE201C090E05E2D22
:103CF000507143FF3CC0911102C083E001C084E0D9
:103D0000811718F4212F281B01C020E051110BC08E
:103D1000F601822F30E2882319F031938150FBCFD6
:103D2000C20ED11C20E0992329F0D6019C93F60104
:103D300031966F01C6010396E2FE0AC03EE4D60149
:103D40003C9341E411964C93119712963C9306C014
:103D50003EE6F601308341E641833283FC01322F97
:103D600040E2332309F442C041933150FACF42FF7D
:103D700044C0911102C083E001C084E0811718F4AF
:103D8000212F281B01C020E051110BC0F601822F0A
:103D900030E2882319F031938150FBCFC20ED11C41
:103DA00020E0992329F0D6019C93F60131966F010A
:103DB000C6010396E2FE0BC039E4D6013C933EE413
:103DC00011963C93119736E412963C9307C039E65E
:103DD000F60130833EE6318336E63283FC01322F32
:103DE00040E2332319F041933150FBCFFC01E20F45
:103DF000F11D10828EEF9FEFA6C021E030E09111FF
:103E000002C020E030E0161617061CF4FB013196C4
:103E100002C0E1E0F0E02E0F3F1FBB2021F0EB2DB0
:103E2000F0E0319602C0E0E0F0E02E0F3F1FE12FFE
:103E3000F0E02E173F071CF4121B212F01C020E0D9
:103E40008E2D887159F4F601822F30E2882319F003
:103E500031938150FBCFC20ED11C20E0992329F071
:103E6000D6019C93F60131966F0151110BC0F601FA
:103E7000822F90E3882319F091938150FBCFC20EDB
:103E8000D11C20E00F2D060F9A81342F307144FF92
:103E900003C0913309F40150101624F4093018F0CE
:103EA00008E001C001E0AB0177FF02C040E050E054
:103EB000FB01E41BF50BA1E0B0E0AC0FBD1FEA0F66
:103EC000FB1F8EE2A82E4B01801A91080B2D10E0EB
:103ED0001195019511094F3FBFEF5B0721F4D60102
:103EE000AC9211966D01641775072CF08416950637
:103EF00014F4818101C080E3415051093196D6010B
:103F000011967D014017510724F0D6018C9367016B
:103F1000E2CF6417750739F4963320F4953319F41A
:103F2000311101C081E3F6018083F701822F90E215
:103F3000882319F091938150FBCFF701E20FF11D17
:103F4000108280E090E029960FB6F894DEBF0FBE95
:103F5000CDBFDF91CF911F910F91FF90EF90DF9038
:103F6000CF90BF90AF909F908F900895283008F029
:103F700027E03327DA01990F311D87FD9160009604
:103F80006105710539F432602E5F3D9330E32A9567
:103F9000E1F708959F3F30F080387105610509F021
:103FA0003C5F3C5F3D93913008F08068911DDF934A
:103FB000CF931F930F93FF92EF92192F987F9695AF
:103FC000E92F96959695E90FFF27EE54FE4F992716
:103FD0003327EE24FF24A701E701059008940794F6
:103FE00028F4360FE71EF81E491F511D660F771F74
:103FF000881F991F0694A1F70590079428F4E70EEF
:10400000F81E491F561FC11D770F881F991F661F75
:104010000694A1F70590079428F4F80E491F561F3F
:10402000C71FD11D880F991F661F771F0694A1F720
:104030000590079420F4490F561FC71FD81F990FEA
:10404000661F771F881F0694A9F784911095177033
:1040500041F0D695C79557954795F794E7941A95EB
:10406000C1F7E8E5F1E068941590159135916591F7
:10407000959105907FE27395E118F10A430B560B79
:10408000C90BD009C0F7E10CF11E431F561FC91F11
:10409000D01D7EF4703311F48A95E6CFE894015078
:1040A00030F0080F0AF40027021708F4202F239598
:1040B000022F7A3328F079E37D932A95E9F710C02F
:1040C0007D932A9589F60694979567953795179568
:1040D0001794E118F10A430B560BC90BD00998F05D
:1040E00023957E9173957A3308F070E37C932013C7
:1040F000B8F77E9170617D9330F0839571E37D9385
:1041000070E32A95E1F71124EF90FF900F911F9132
:10411000CF91DF91992787FD90950895F894FFCF6F
:10412000CDCC4C3F000040408E06703D00000000AA
:1041300000000000000000000000803F9565A8BE60
:1041400033C471BF00000000000000000000000048
:10415000000000000000803F0000000033C471BF79
:104160009565A83E0000000077BE114100000000E8
:1041700000000000000000000000803F0000000080
:10418000000000000000803F0000000003787B3F3B
:10419000C9E53FBE0000000000000000C9E53F3E49
:1041A00003787B3F0000000077BE11410000000053
:1041B00000000000000000000000803F394527BFDC
:1041C000C1CA413F000000000000000000000000E4
:1041D000000000000000803F00000000C1CA413F15
:1041E0003945273F0000000077BE11410000000064
:1041F00000000000000000000000803F0000000000
:10420000000000000000803F00000000394527BF8B
:10421000C1CA41BF0000000000000000C1CA413F08
:10422000394527BF0000000077BE114100000000A3
:1042300000000000000000000000803F03787B3F8A
:10424000C9E53F3E00000000000000000000000043
:10425000000000000000803F00000000C9E53F3E74
:1042600003787BBF0000000077BE11410000000012
:1042700000000000000000000000803F000000007F
:10428000000000000000803F000000009565A8BE0F
:1042900033C4713F000000000000000033C471BF50
:1042A0009565A8BE0000000077BE11410000000027
:1042B00000000000000000000000803F0000803F80
:1042C00000000000000000000000000000000000EE
:1042D0000000803F0000000000000000000000001F
:1042E000000000000000803F00000000000000000F
:1042F00000000000000000000000803F0000803F40
:1043000000000000000000000000000000000000AD
:104310000000803F000000000000000000000000DE
:10432000000000000000803F0000000000000000CE
:1043300000000000000000000000803F0000803FFF
:10434000000000000000000000000000000000006D
:104350000000803F0000000000000000000000009E
:10436000000000000000803F00000000000000008E
:1043700000000000000000000000803F0000803FBF
:10438000000000000000000000000000000000002D
:104390000000803F0000000000000000000000005E
:1043A000000000000000803F00000000000000004E
:1043B00000000000000000000000803F0000803F7F
:1043C00000000000000000000000000000000000ED
:1043D0000000803F0000000000000000000000001E
:1043E000000000000000803F00000000000000000E
:1043F00000000000000000000000803F0000803F3F
:1044000000000000000000000000000000000000AC
:104410000000803F000000000000000000000000DD
:10442000000000000000803F0000000000000000CD
:1044300000000000000000000000803F4AF164BF5F
:1044400037A299BFE5463FC0E5463F4037A2993FB6
:104450004AF1643F094769726F583A200009504990
:104460004420414C46413A20000909094769726FCE
:10447000593A20000950494420424554413A20000D
:044480000D0A000021
:00000001FF
