:1000000029C1000058C1000056C1000054C10000C1
:1000100052C1000050C100004EC100004CC10000A0
:100020004AC1000048C1000046C1000044C10000B0
:1000300042C1000040C100003EC100003CC10000C0
:100040003AC1000038C1000036C1000034C10000D0
:1000500032C1000030C100002EC100002CC10000E0
:100060002AC1000028C1000026C1000024C10000F0
:1000700022C1000020C100001EC100001CC1000000
:100080001AC1000018C1000016C1000014C1000010
:1000900012C1000010C100000EC100000CC1000020
:1000A0000AC1000008C1000006C1000004C1000030
:1000B00002C1000000C10000FEC00000FCC0000042
:1000C000FAC00000F8C00000F6C00000F4C0000054
:1000D000F2C00000F0C00000EEC00000ECC0000064
:1000E000EAC00000084AD73B3BCE016E84BCBFFD8E
:1000F000C12F3D6C74319ABD56833DDA3D00C77FF8
:1001000011BED9E4BB4C3E916BAAAABE0000008090
:100110003F072C7AA5BA6CC590DA3B9365FC8BBC83
:1001200053F810FD3C5692834DBD879D3AB63DCBAA
:10013000C9BF5BBE73DA0FC93F05A84CCDB2D44E20
:10014000B93836A9020C50B9918688083CA6AAAAEB
:100150002ABE000000803F0000407A10F35A00A041
:10016000724E18090010A5D4E80000E87648170080
:1001700000E40B54020000CA9A3B000000E1F505C0
:10018000000080969800000040420F000000A0860A
:1001900001000000102700000000E803000000003C
:1001A0006400000000000A000000000001000000E0
:1001B00000002C76D888DC674F0823DFC1DFAE59FA
:1001C000E1B1B796E5E3E453C63AE651997696E88D
:1001D000E6C28426EB898C9B62ED407C6FFCEFBC11
:1001E0009C9F40F2BAA56FA5F490055A2AF75C933C
:1001F0006B6CF9676DC11BFCE0E40D47FEF520E672
:10020000B500D0ED902E0300943577050080841E54
:10021000080000204E0A000000C80C333333330FAF
:10022000986E12831141EF8D2114893BE65516CF4C
:10023000FEE6DB18D1844B381BF77C1D901DA4BB58
:10024000E424203284725E228100C9F124ECA1E50D
:100250003D27081611241FBECFEFD1E2DEBFCDBF70
:1002600000E00CBF15E0A0E0B2E0E0E3F9E300E05D
:100270000BBF02C007900D92A834B107D9F728E050
:10028000A8E4B5E001C01D92A938B207E1F711E07A
:10029000CAE2D1E000E006C021970109802FFE01EB
:1002A0000E94211AC932D10780E00807A9F70E94ED
:1002B000A0150C94961CA4CE68988DB18A638DB954
:1002C000809880B38E6180BB889811BAE1E0F1E03C
:1002D0008081886380830895E0E9F0E080818E7FEB
:1002E0008083808182608083E1E9F0E080818860A2
:1002F000808380818061808380818F77808380810B
:100300008B7F808380818D7F808380818E7F8083BF
:10031000109292001092710018BA2FE33CE93093CA
:10032000970020939600E0EAF0E080818E7F808342
:10033000808182608083E1EAF0E080818860808350
:1003400080818061808380818F77808380818B7FB3
:10035000808380818D7F808380818E7F80831092D7
:10036000A2001092720019BA3093A7002093A60041
:1003700008951092950010929400E1E9F0E08081D8
:100380008B7F808380818260808380818E7F808369
:100390001092A5001092A400E1EAF0E080818B7F2A
:1003A000808380818260808380818E7F80830895B6
:1003B0009B01AC01E0E9F0E080818068808380816E
:1003C0008F7B808360E070E084EB92E40E94EF1604
:1003D00020E030E040E351E40E94261920E030E0C4
:1003E00044E353E40E947F1720E030E040E050E413
:1003F0000E94F01620E03FE34CE157E40E942619EA
:1004000020E030E048EC52E40E947F170E94EC1795
:1004100070939900609398000895E0E9F0E02081DE
:100420002062208320812F7E208320E030E044EB77
:1004300052E40E94F01620E030E040E351E40E94D4
:10044000261920E030E044E353E40E947F1720E0C7
:1004500030E040E050E40E94F01620E03FE34CE141
:1004600057E40E94261920E030E048EC52E40E9454
:100470007F170E94EC1770939B0060939A00089579
:100480009B01AC01E0E9F0E080818860808380819D
:100490008B7F808360E070E084EB92E40E94EF1633
:1004A00020E030E040E351E40E94261920E030E0F3
:1004B00044E353E40E947F1720E030E040E050E442
:1004C0000E94F01620E03FE34CE157E40E94261919
:1004D00020E030E048EC52E40E947F170E94EC17C5
:1004E00070939D0060939C000895E0EAF0E0208105
:1004F0002068208320812F7B208320E030E044EBA4
:1005000052E40E94F01620E030E040E251E40E9404
:10051000261920E030E044E353E40E947F1720E0F6
:1005200030E040E050E40E94F01620E03FE34CE170
:1005300057E40E94261920E030E048EC52E40E9483
:100540007F170E94EC177093A9006093A80008958C
:100550009B01AC01E0EAF0E08081806280838081D1
:100560008F7E808360E070E084EB92E40E94EF165F
:1005700020E030E040E251E40E94261920E030E023
:1005800044E353E40E947F1720E030E040E450E46D
:100590000E94F01620E03FE34CE157E40E94261948
:1005A00020E030E048EC52E40E947F170E94EC17F4
:1005B0007093AB006093AA000895E0EAF0E0208118
:1005C0002860208320812B7F208320E030E044EBD3
:1005D00052E40E94F01620E030E040E251E40E9434
:1005E000261920E030E044E353E40E947F1720E026
:1005F00030E040E050E40E94F01620E03FE34CE1A0
:1006000057E40E94261920E030E048EC52E40E94B2
:100610007F170E94EC177093AD006093AC000895B3
:100620004F925F926F927F928F929F92AF92BF9202
:10063000CF92DF92EF92FF920F931F93CF93DF93AE
:10064000CDB7DEB768970FB6F894DEBF0FBECDBF4B
:10065000ED82FE820F83188709EE17E00F2E412CE2
:10066000512CF0E86F2EFFE37F2EF02DF801408231
:1006700051826282738214821582168217821086DA
:100680001186128613866487758786879787108AF6
:10069000118A128A138A448A558A668A778A108E4A
:1006A000118E128E138E248F358F468F578F10A286
:1006B00011A212A213A214A215A216A217A240A65A
:1006C00051A662A673A62AE939E941E851E46D8191
:1006D0007E818F8198850E94F016F80164A775A726
:1006E00086A797A710AA11AA12AA13AA14AA15AA34
:1006F00016AA17AA10AE11AE12AE13AE44AE55AE86
:1007000066AE77AE2BED3FE049E450E4C601B5019B
:100710000E94261920E030E044E353E40E947F1752
:1007200069837A838B839C832BED3FE049E450E41B
:100730006CA57DA58EA59FA50E94261920E030E01E
:1007400044E353E40E947F174B015C012BED3FE033
:1007500049E450E468A979A98AA99BA90E942619AD
:1007600020E030E044E353E40E947F176B017C01FA
:100770000E947C1769877A878B879C87C501B401A3
:100780000E947C176D877E878F87988B09EA17E018
:100790009B01AC0169857A858B859C850E94261911
:1007A000F8016083718382839383C701B6010E943D
:1007B00089196B017C0169817A818B819C810E94FE
:1007C0007C176D837E838F839887C501B4010E9457
:1007D00089194B015C019B01AC0169857A858B8588
:1007E0009C850E942619698B7A8B8B8B9C8B6981E7
:1007F0007A818B819C810E94891969837A838B839A
:100800009C83C701B60190582D813E814F81588548
:100810000E9426196D8B7E8B8F8B988F29813A8150
:100820004B815C8169897A898B899C890E94261910
:100830009B01AC016D897E898F89988D0E94F0168D
:10084000F801648375838683978329813A814B817C
:100850005C81C701B6010E9426196D8B7E8B8F8B40
:10086000988F29893A894B895C896D817E818F8136
:1008700098850E9426199B01AC016D897E898F891C
:10088000988D0E94F016F8016087718782879387A0
:100890001486158616861786A70196016D857E85B6
:1008A0008F8598890E942619F801608B718B828B45
:1008B000938BA5019401C701B6010E9426196B0113
:1008C0007C012D813E814F81588569857A858B8594
:1008D0009C850E942619698B7A8B8B8B9C8BA70138
:1008E000960169817A818B819C810E9426199B01E6
:1008F000AC0169897A898B899C890E94F016F8017C
:10090000648B758B868B978B69857A858B859C85A7
:10091000905829813A814B815C810E942619698710
:100920007A878B879C87A70196016D817E818F8155
:1009300098850E9426199B01AC0169857A858B8573
:100940009C850E94F016F801608F718F828F938FC3
:10095000148E158E168E178ED501C401B05880A343
:1009600091A3A2A3B3A329813A814B815C816D85B8
:100970007E858F8598890E942619F80164A375A346
:1009800086A397A32D813E814F8158856D857E85F5
:100990008F8598890E942619F80160A771A782A700
:1009A00093A714A615A616A617A610AA11AA12AAEE
:1009B00013AA14AA15AA16AA17AA10AE11AE12AE3F
:1009C00013AE44AE55AE66AE77AE68960FB6F894E9
:1009D000DEBF0FBECDBFDF91CF911F910F91FF9072
:1009E000EF90DF90CF90BF90AF909F908F907F90CF
:1009F0006F905F904F9008952F923F924F925F9229
:100A00006F927F928F929F92AF92BF92CF92DF921E
:100A1000EF92FF920F931F93CF93DF9300D000D0FC
:100A2000CDB7DEB729EE37E03A83298389E697E030
:100A30009C838B830F2EF9EB2F2EF7E03F2EF02DAA
:100A40000F2EF9EA6F2EF7E07F2EF02D4B805C80A1
:100A500062018301005C1F4F7301E981FA81812CDF
:100A6000912CA12CB12CFE83ED83ED81FE8161914F
:100A7000719181919191FE83ED83F7012081318104
:100A8000428153810E9426199B01AC01682D792D6A
:100A90008A2D9B2D0E94F016862E972EA82EB92EF9
:100AA000F0E1EF0EF11CE016F106F9F6862F992D14
:100AB000AA2DBB2DF60180839183A283B383F4E03A
:100AC0004F0E511C24E0620E711C6214730409F075
:100AD000BFCF89819A8140969A838983EB81FC817B
:100AE0007096FC83EB8329E238E02817390709F078
:100AF000A7CF84E090E090932A08809329089093F0
:100B00002C0880932B0890932E0880932D0826960E
:100B10000FB6F894DEBF0FBECDBFDF91CF911F910E
:100B20000F91FF90EF90DF90CF90BF90AF909F908C
:100B30008F907F906F905F904F903F902F9008958F
:100B40002F923F924F925F926F927F928F929F92DD
:100B5000AF92BF92CF92DF92EF92FF920F931F93CB
:100B6000CF93DF93CDB7DEB728970FB6F894DEBFEB
:100B70000FBECDBF41DF29E637E03E832D8389E2FA
:100B800097E09C838B833A8329830F2EF0EE2F2EE0
:100B9000F4E03F2EF02D0F2EF0ED6F2EF4E07F2EBF
:100BA000F02D4B805C8062018301005C1F4F73015C
:100BB00029813A81812C912CA12CB12C38872F834B
:100BC000EF81F8856191719181919191F887EF831F
:100BD000F70120813181428153810E9426199B01B6
:100BE000AC01682D792D8A2D9B2D0E94F016862E42
:100BF000972EA82EB92EF0E1EF0EF11CE016F106AB
:100C0000F9F6862F992DAA2DBB2DF60180839183AD
:100C1000A283B383F4E04F0E511C24E0620E711CDA
:100C20006214730409F0BFCF89819A8140969A8338
:100C30008983EB81FC817096FC83EB8329EA37E0A2
:100C40002817390709F0A7CF89EE96E09C838B839C
:100C5000E9E6F7E0FA83E9830F2EF0EA2F2EF4E0BD
:100C60003F2EF02D0F2EF0E96F2EF4E07F2EF02DA9
:100C70004B805C8062018301005C1F4F73012981FE
:100C80003A81812C912CA12CB12C38872F83EF81B4
:100C9000F8856191719181919191F887EF83F701C6
:100CA00020813181428153810E9426199B01AC0130
:100CB000682D792D8A2D9B2D0E94F016862E972E59
:100CC000A82EB92EF0E1EF0EF11CE016F106F9F6B0
:100CD000862F992DAA2DBB2DF60180839183A283A7
:100CE000B383F4E04F0E511C24E0620E711C6214B9
:100CF000730409F0BFCF89819A8140969A838983D2
:100D0000EB81FC817096FC83EB8329EA37E028179E
:100D1000390709F0A7CF89EA96E09C838B83E9E63F
:100D2000F7E0FA83E9830F2EF0E62F2EF4E03F2E52
:100D3000F02D0F2EF0E56F2EF4E07F2EF02D4B807E
:100D40005C8062018301005C1F4F730129813A813D
:100D5000812C912CA12CB12C38872F83EF81F88521
:100D60006191719181919191F887EF83F7012081D1
:100D70003181428153810E9426199B01AC01682D6B
:100D8000792D8A2D9B2D0E94F016862E972EA82E47
:100D9000B92EF0E1EF0EF11CE016F106F9F6862F00
:100DA000992DAA2DBB2DF60180839183A283B38355
:100DB000F4E04F0E511C24E0620E711C62147304A7
:100DC00009F0BFCF89819A8140969A838983EB810C
:100DD000FC817096FC83EB8329EA37E028173907FA
:100DE00009F0A7CF89E696E09C838B83E9E6F7E0DC
:100DF000FA83E9830F2EF0E22F2EF4E03F2EF02D40
:100E00000F2EF0E16F2EF4E07F2EF02D4B805C80F2
:100E100062018301005C1F4F730129813A81812C9B
:100E2000912CA12CB12C38872F83EF81F88561910B
:100E3000719181919191F887EF83F7012081318140
:100E4000428153810E9426199B01AC01682D792DA6
:100E50008A2D9B2D0E94F016862E972EA82EB92E35
:100E6000F0E1EF0EF11C0E151F05F9F6862F992DF6
:100E7000AA2DBB2DF60180839183A283B383F4E076
:100E80004F0E511C24E0620E711C2614370409F029
:100E9000BFCF89819A8140969A838983EB81FC81B7
:100EA0007096FC83EB8329EA37E02817390709F0AD
:100EB000A7CF89E296E09C838B83E9E6F7E0FA838B
:100EC000E9830F2EF0EE2F2EF3E03F2EF02D0F2EA4
:100ED000F0ED6F2EF3E07F2EF02D4B805C806201F1
:100EE0008301005C1F4F730129813A81812C912C71
:100EF000A12CB12C38872F83EF81F88561917191F6
:100F000081919191F887EF83F701208131814281AE
:100F100053810E9426199B01AC01682D792D8A2DE1
:100F20009B2D0E94F016862E972EA82EB92EF0E14A
:100F3000EF0EF11C0E151F05F9F6862F992DAA2D1F
:100F4000BB2DF60180839183A283B383F4E04F0E1F
:100F5000511C24E0620E711C6214730409F0BFCFAF
:100F600089819A8140969A838983EB81FC8170966E
:100F7000FC83EB8329EA37E02817390709F0A7CF6C
:100F800089EE95E09A8389830F2EF0EA2F2EF3E005
:100F90003F2EF02D0F2EF0E96F2EF3E07F2EF02D77
:100FA00049805A8062018301005C1F4F7301ED810B
:100FB000FE81812C912CA12CB12CFC83EB83EB8145
:100FC000FC816191719181919191FC83EB83F70197
:100FD00020813181428153810E9426199B01AC01FD
:100FE000682D792D8A2D9B2D0E94F016862E972E26
:100FF000A82EB92EF0E1EF0EF11CE016F106F9F67D
:10100000862F992DAA2DBB2DF60180839183A28373
:10101000B383F4E04F0E511C24E0620E711C621485
:10102000730409F0BFCF8D819E8140969E838D838E
:10103000E981FA817096FA83E98329EA37E0281773
:10104000390709F0A7CF84E090E090932A088093B5
:10105000290890932C0880932B0890932E08809356
:101060002D0828960FB6F894DEBF0FBECDBFDF91D6
:10107000CF911F910F91FF90EF90DF90CF90BF9095
:10108000AF909F908F907F906F905F904F903F9028
:101090002F9008952F923F924F925F926F927F927E
:1010A0008F929F92AF92BF92CF92DF92EF92FF9278
:1010B0000F931F93CF93DF93CDB7DEB7CC58D140BA
:1010C0000FB6F894DEBF0FBECDBF3ADD80E4FE015F
:1010D0003196DF01282F1D922A95E9F79E012F5B9B
:1010E0003F4FD901982F1D929A95E9F7205C3F4F09
:1010F000D901982F1D929A95E9F7205C3F4FD901AD
:10110000982F1D929A95E9F7205C3F4FD901982FAF
:101110001D929A95E9F7205C3F4FD9011D928A955F
:10112000E9F710922E0810922D0820E533E0C957F8
:10113000DE4F39832883C758D140C757DE4FF98324
:10114000E883C958D140CF57DE4FF983E883C158AF
:10115000D1400F2EF9E32F2EF7E03F2EF02D0F2E6A
:10116000F9E24F2EF7E05F2EF02DCF57DE4F68806B
:101170007980C158D140CD57DE4F79826882C358FB
:10118000D140720130E4E30EF11C8201C957DE4FF9
:10119000C880D980C758D140812C912CA12CB12C6A
:1011A000D6016D917D918D919D916D01F801208108
:1011B0003181428153810E9426199B01AC01682D27
:1011C000792D8A2D9B2D0E94F016862E972EA82E03
:1011D000B92E005F1F4F0E151F0511F7862F992D91
:1011E000AA2DBB2DCD57DE4FE881F981C358D140E0
:1011F00080839183A283B383F4E06F0E711C24E09B
:10120000420E511C4214530409F0B5CFC957DE4FAA
:1012100088819981C758D1404096C957DE4F99833C
:101220008883C758D140CF57DE4FA881B981C158B4
:10123000D1405096CF57DE4FB983A883C158D140D3
:10124000E0E9F3E0E817F90709F089CF0F2EF9ED8F
:101250004F2EF5E05F2EF02D0F2EF9EEAF2EF5E0BC
:10126000BF2EF02D0F2EF0E1CF2EF2E0DF2EF02D6D
:10127000212CCB57DE4FB982A882C558D140C75721
:10128000DE4F88809980C958D140CF57DE4F5982B0
:101290004882C158D14020E032E0CD57DE4F28834C
:1012A000C358D140C957DE4F3883C758D140C757BC
:1012B000DE4FD982C882C958D14089017401B12C4E
:1012C000312C612C722CD7016D917D918D919D9166
:1012D0007D01F80121913191419151918F010E943D
:1012E00026199B01AC016B2D732D862D972D0E9425
:1012F000F016B62E372E682E792EC016D10619F7A5
:10130000862F932DA62DB72DCF57DE4FE881F9817B
:10131000C158D14080839183A283B383F4E04F0E00
:10132000511C20E1820E911CCB57DE4F88819981A0
:10133000C558D1408415950509F0A7CFC757DE4F92
:1013400028803980C958D14084E090E090932A08E1
:101350008093290881E090E090932C0880932B08DB
:1013600010922E0810922D08A0E1B3E0CB57DE4F6B
:10137000B983A883C558D140FE01EF5BFF4FC55725
:10138000DE4FF983E883CB58D140C757DE4FF9834E
:10139000E883C958D1400F2EF9EE4F2EF6E05F2EAC
:1013A000F02DC757DE4F68807980C958D140CF579C
:1013B000DE4F79826882C158D1407201F0E4EF0EAD
:1013C000F11C8201CB57DE4FC880D980C558D1406F
:1013D000812C912CA12CB12CD6016D917D918D91F8
:1013E0009D916D01F80120813181428153810E94DC
:1013F00026199B01AC01682D792D8A2D9B2D0E9409
:10140000F016862E972EA82EB92E005F1F4FE016DD
:10141000F10611F7862F992DAA2DBB2DCF57DE4F40
:10142000E881F981C158D14080839183A283B3833D
:10143000F4E06F0E711C24E0420E511C89EF96E01F
:101440008415950509F0B3CFCB57DE4FA881B9813C
:10145000C558D1405096CB57DE4FB983A883C558A5
:10146000D140C757DE4FE881F981C958D140709605
:10147000C757DE4FF983E883C958D140A055B34020
:1014800009F089CF0F2EF9ECCF2EF5E0DF2EF02DED
:101490000F2EF9ED4F2EF5E05F2EF02DC557DE4FE4
:1014A000A880B980CB58D140CF57DE4FD982C882AF
:1014B000C158D140CD57DE4F0881C358D140C957DC
:1014C000DE4F1881C758D1407501612C712C812CD9
:1014D000912CD7016D917D918D919D917D01F801A8
:1014E00021913191419151918F010E9426199B01C7
:1014F000AC01662D772D882D992D0E94F016662E51
:10150000772E882E992E2016310619F7862F972DC3
:10151000A82DB92DCF57DE4FE881F981C158D140B0
:1015200080839183A283B383F4E0CF0ED11C20E1AA
:10153000A20EB11C4C145D0409F0B6CF84E090E01B
:1015400090932A088093290881E090E090932C08DA
:1015500080932B0810922E0810922D0880ED92E0B7
:10156000CB57DE4F99838883C558D140DE01AF57F2
:10157000BF4FC557DE4FB983A883CB58D140C7575B
:10158000DE4FB983A883C958D1400F2EF9EA4F2EF8
:10159000F6E05F2EF02DC757DE4F68807980C9587E
:1015A000D140CF57DE4F79826882C158D140720155
:1015B000B0E4EB0EF11C8201CB57DE4FC880D9801E
:1015C000C558D140812C912CA12CB12CF6016191F0
:1015D0007191819191916F01D8012D913D914D9122
:1015E0005C910E9426199B01AC01682D792D8A2DF2
:1015F0009B2D0E94F016862E972EA82EB92E005FE6
:101600001F4FE016F10611F7862F992DAA2DBB2D3D
:10161000CF57DE4FE881F981C158D1408083918353
:10162000A283B383F4E06F0E711C24E0420E511CC0
:1016300089EB96E08415950509F0B3CFCB57DE4FC3
:10164000A881B981C558D1405096CB57DE4FB98398
:10165000A883C558D140C757DE4FE881F981C958E2
:10166000D1407096C757DE4FF983E883C958D140FF
:10167000A051B34009F089CF0F2EF9EBCF2EF5E042
:10168000DF2EF02D0F2EF9EC4F2EF5E05F2EF02D12
:10169000C557DE4FA880B980CB58D140CF57DE4F19
:1016A000D982C882C158D140CD57DE4F0881C35876
:1016B000D140C957DE4F1881C758D1407501612C00
:1016C000712C812C912CD7016D917D918D919D91E3
:1016D0007D01F80121913191419151918F010E9439
:1016E00026199B01AC01662D772D882D992D0E941E
:1016F000F016662E772E882E992E2016310619F7B1
:10170000862F972DA82DB92DCF57DE4FE881F9816F
:10171000C158D14080839183A283B383F4E0CF0E7C
:10172000D11C20E1A20EB11CC414D50409F0B6CF1F
:1017300084E090E090932A088093290881E090E06B
:1017400090932C0880932B0810922E0810922D084D
:1017500080E992E0CB57DE4F99838883C558D1400A
:10176000DE01AF53BF4FC557DE4FB983A883CB58B7
:10177000D140C757DE4FB983A883C958D1400F2E37
:10178000F9E64F2EF6E05F2EF02DC757DE4F68804A
:101790007980C958D140CF57DE4F79826882C158CD
:1017A000D1407201B0E4EB0EF11C8201CB57DE4F49
:1017B000C880D980C558D140812C912CA12CB12C46
:1017C000F60161917191819191916F01D8012D91F3
:1017D0003D914D915C910E9426199B01AC01682DB1
:1017E000792D8A2D9B2D0E94F016862E972EA82EDD
:1017F000B92E005F1F4F0E151F0511F7862F992D6B
:10180000AA2DBB2DCF57DE4FE881F981C158D140B9
:1018100080839183A283B383F4E06F0E711C24E074
:10182000420E511C89E796E08415950509F0B3CF67
:10183000CB57DE4FA881B981C558D1405096CB57C0
:10184000DE4FB983A883C558D140C757DE4FE88122
:10185000F981C958D1407096C757DE4FF983E883A4
:10186000C958D140A05DB24009F089CF0F2EF9EAE6
:10187000CF2EF5E0DF2EF02D0F2EF9EB4F2EF5E0F9
:101880005F2EF02DC557DE4FA880B980CB58D140D0
:10189000CF57DE4FD982C882C158D140CD57DE4FD5
:1018A0000881C358D140C957DE4F1881C758D1406D
:1018B0007501612C712C812C912CD7016D917D913A
:1018C0008D919D917D01F80121913191419151912D
:1018D0008F010E9426199B01AC01662D772D882D62
:1018E000992D0E94F016662E772E882E992E20169E
:1018F000310619F7862F972DA82DB92DCF57DE4F1A
:10190000E881F981C158D14080839183A283B38358
:10191000F4E0CF0ED11C20E1A20EB11C4C145D04EA
:1019200009F0B6CF84E090E090932A0880932908CC
:1019300081E090E090932C0880932B0810922E0861
:1019400010922D0880E592E0CB57DE4F9983888373
:10195000C558D140DE01AF5FBE4FC557DE4FB983DA
:10196000A883CB58D140C757DE4FB983A883C95845
:10197000D1400F2EF9E24F2EF6E05F2EF02DC75723
:10198000DE4F68807980C958D140CF57DE4F7982C9
:101990006882C158D1407201B0E4EB0EF11C8201A3
:1019A000CB57DE4FC880D980C558D140812C912CAF
:1019B000A12CB12CF60161917191819191916F01EE
:1019C000D8012D913D914D915C910E9426199B016A
:1019D000AC01682D792D8A2D9B2D0E94F016862E44
:1019E000972EA82EB92E005F1F4F0E151F0511F759
:1019F000862F992DAA2DBB2DCF57DE4FE881F98177
:101A0000C158D14080839183A283B383F4E06F0EE9
:101A1000711C24E0420E511C89E396E08415950563
:101A200009F0B3CFCB57DE4FA881B981C558D1405B
:101A30005096CB57DE4FB983A883C558D140C757BE
:101A4000DE4FE881F981C958D1407096C757DE4F03
:101A5000F983E883C958D140A059B24009F089CF31
:101A60000F2EF9E9CF2EF5E0DF2EF02D0F2EF9EA3B
:101A70004F2EF5E05F2EF02DC557DE4FA880B980C0
:101A8000CB58D140CF57DE4FD982C882C158D14000
:101A9000CD57DE4F0881C358D140C957DE4F18815A
:101AA000C758D1407501612C712C812C912CD70124
:101AB0006D917D918D919D917D01F80121913191E3
:101AC000419151918F010E9426199B01AC01662D15
:101AD000772D882D992D0E94F016662E772E882E50
:101AE000992E2016310619F7862F972DA82DB92D7E
:101AF000CF57DE4FE881F981C158D140808391836F
:101B0000A283B383F4E0CF0ED11C20E1A20EB11C5E
:101B10004C145D0409F0B6CF84E090E090932A085D
:101B20008093290881E090E090932C0880932B0803
:101B300010922E0810922D0880E192E0CB57DE4FD4
:101B400099838883C558D140DE01AF5BBE4FC5572E
:101B5000DE4FB983A883CB58D140C757DE4FB98336
:101B6000A883C958D1400F2EF9EE4F2EF5E05F2E15
:101B7000F02DC757DE4F68807980C958D140CF57C4
:101B8000DE4F79826882C158D1407201B0E4EB0E19
:101B9000F11C8201CB57DE4FC880D980C558D14097
:101BA000812C912CA12CB12CF60161917191819124
:101BB00091916F01D8012D913D914D915C910E94C1
:101BC00026199B01AC01682D792D8A2D9B2D0E9431
:101BD000F016862E972EA82EB92E005F1F4FE01606
:101BE000F10611F7862F992DAA2DBB2DCF57DE4F69
:101BF000E881F981C158D14080839183A283B38366
:101C0000F4E06F0E711C24E0420E511C89EF95E048
:101C10008415950509F0B3CFCB57DE4FA881B98164
:101C2000C558D1405096CB57DE4FB983A883C558CD
:101C3000D140C757DE4FE881F981C958D14070962D
:101C4000C757DE4FF983E883C958D140A055B24049
:101C500009F089CF0F2EF9E8CF2EF5E0DF2EF02D19
:101C60000F2EF9E94F2EF5E05F2EF02DC557DE4F10
:101C7000A880B980CB58D140CF57DE4FD982C882D7
:101C8000C158D140CD57DE4F0881C358D140C95704
:101C9000DE4F1881C758D1407501612C712C812C01
:101CA000912CD7016D917D918D919D917D01F801D0
:101CB00021913191419151918F010E9426199B01EF
:101CC000AC01662D772D882D992D0E94F016662E79
:101CD000772E882E992E2016310619F7862F972DEC
:101CE000A82DB92DCF57DE4FE881F981C158D140D9
:101CF00080839183A283B383F4E0CF0ED11C20E1D3
:101D0000A20EB11C4C145D0409F0B6CF84E090E043
:101D100090932A088093290821E030E030932C0822
:101D200020932B0890932E0880932D08C457DE4FE4
:101D30000FB6F894DEBF0FBECDBFDF91CF911F91DC
:101D40000F91FF90EF90DF90CF90BF90AF909F905A
:101D50008F907F906F905F904F903F902F9008955D
:101D60004F925F926F927F928F929F92AF92BF92AB
:101D7000CF92DF92EF92FF92CF93DF93CDB7DEB792
:101D8000C454D1090FB6F894DEBF0FBECDBFE9ED44
:101D9000F5E0C080D180E280F38044805580668089
:101DA000778080859185A285B3858D839E83AF835F
:101DB000B887E9ECF5E080819181A281B3818983C4
:101DC0009A83AB83BC8384819581A681B7818987FF
:101DD0009A87AB87BC8780859185A285B38589A7C3
:101DE0009AA7ABA7BCA7E9EBF5E080819181A2811E
:101DF000B3818D879E87AF87B88B84809580A680BE
:101E0000B78080859185A285B3858DA79EA7AFA752
:101E1000B8ABE9EAF5E080819181A281B381898B39
:101E20009A8BAB8BBC8B84819581A681B7818D8B7E
:101E30009E8BAF8BB88F80859185A285B38589AB4A
:101E40009AABABABBCABE9E9F5E080819181A281B3
:101E5000B381898F9A8FAB8FBC8F84819581A68146
:101E6000B7818D8F9E8FAF8FB8A380859185A28516
:101E7000B3858DAB9EABAFABB8AFE9E8F5E0808141
:101E80009181A281B38189A39AA3ABA3BCA38481CE
:101E90009581A681B7818DA39EA3AFA3B8A78085A6
:101EA0009185A285B38589AF9AAFABAFBCAFA301D3
:101EB0009201C701B6010E947F17F6D721966CAF39
:101EC0007DAF8EAF9FAF2197A7019601C701B601E5
:101ED0000E9426196B017C01A7019601C301B20182
:101EE0007FD70E94931925966CAF7DAF8EAF9FAFC1
:101EF000259728EB3EE345E853E4C701B6016FD7C9
:101F00006B017C01A3019201C301B2010E94261959
:101F10009B01AC01C701B60163D76B017C012D8128
:101F20003E814F815885CA01B9010E9426199B0143
:101F3000AC01C701B60154D76B017C012AE939E92C
:101F400049E950E425966CAD7DAD8EAD9FAD2597EA
:101F50000E9426199B01AC01C701B601D0D731D729
:101F60006B017C0120E030E044E353E421966CAD4A
:101F70007DAD8EAD9FAD21970E9426192BED3FE0E0
:101F800049E450E4BCD76D837E838F83988720E03B
:101F900030E044E353E4C701B6010E9426192BED5B
:101FA0003FE049E450E4ABD79B01AC016D817E81F9
:101FB0008F81988514D760938505709386058093EB
:101FC00087059093880529813A814B815C816985D9
:101FD0007A858B859C8593D767D76D837E838F8326
:101FE000988729813A814B815C81CA01B9010E949D
:101FF00026196B017C0129853A854B855C85CA01D0
:10200000B9010E9426199B01AC01C701B601E8D6AF
:102010006B017C010E94931969837A838B839C8373
:1020200029A53AA54BA55CA5CA01B9010E942619AC
:10203000A7019601D5D628EB3EE345E853E4CFD679
:102040006B017C012AE939E949E950E469817A8127
:102050008B819C810E9426199B01AC01C701B601AE
:102060004ED7AFD66B017C0120E030E044E353E46F
:102070006D817E818F8198850E9426192BED3FE02E
:1020800049E450E43CD769837A838B839C8320E0C6
:1020900030E044E353E4C701B6010E9426192BED5A
:1020A0003FE049E450E42BD79B01AC0169817A8180
:1020B0008B819C8194D66093810570938205809377
:1020C000830590938405A50194016D857E858F8598
:1020D000988915D7E9D669837A838B839C832D856C
:1020E0003E854F855889CA01B9010E9426196B01A6
:1020F0007C01A7019601C301B20172D60E94931917
:1021000069877A878B879C8728EB3EE345E853E411
:10211000C701B60164D66B017C01A5019401C5011C
:10212000B4010E9426199B01AC01C701B60158D623
:102130006B017C012DA53EA54FA558A9CA01B90187
:102140000E9426199B01AC01C701B60149D66B015B
:102150007C012AE939E949E950E469857A858B856A
:102160009C850E9426199B01AC01C701B601C7D608
:1021700028D66B017C0120E030E044E353E4698120
:102180007A818B819C810E9426192BED3FE049E4E6
:1021900050E4B5D64B015C0120E030E044E353E469
:1021A000C701B6010E9426192BED3FE049E450E437
:1021B000A6D69B01AC01C501B40111D660937D0583
:1021C00070937E0580937F059093800529893A89D5
:1021D0004B895C896D897E898F89988D90D664D66C
:1021E0004B015C0129893A894B895C89CA01B90193
:1021F0000E9426196B017C012D893E894F89588DDB
:10220000CA01B9010E9426199B01AC01C701B601A0
:10221000E7D56B017C010E94931969837A838B83D4
:102220009C8329A93AA94BA95CA9CA01B9010E94BA
:102230002619A7019601D4D528EB3EE345E853E4DF
:10224000CED56B017C012AE939E949E950E469817D
:102250007A818B819C81FAD79B01AC01C701B601C1
:102260004ED6AFD56B017C0120E030E044E353E46F
:10227000C501B401EBD72BED3FE049E450E43FD674
:102280004B015C0120E030E044E353E4C701B601B8
:10229000DDD72BED3FE049E450E431D69B01AC01A2
:1022A000C501B4019CD56093790570937A0580933C
:1022B0007B0590937C052D8D3E8D4F8D58A1698DAA
:1022C0007A8D8B8D9C8D1BD6EFD56B017C01298D72
:1022D0003A8D4B8D5C8DCA01B901B8D74B015C01B9
:1022E000A5019401C301B2017BD50E9493192B0172
:1022F0003C0128EB3EE345E853E4C501B4016FD54A
:102300004B015C012D8D3E8D4F8D58A1CA01B90145
:102310009DD79B01AC01C501B40162D54B015C01A5
:102320002DA93EA94FA958ADCA01B9018FD79B016C
:10233000AC01C501B40154D54B015C012AE939E96E
:1023400049E950E4C301B20181D79B01AC01C50149
:10235000B401D5D536D54B015C0120E030E044E333
:1023600053E4C701B60172D72BED3FE049E450E4D6
:10237000C6D56B017C0120E030E044E353E4C501A5
:10238000B40164D72BED3FE049E450E4B8D59B019C
:10239000AC01C701B60123D560937505709376052E
:1023A000809377059093780529A13AA14BA15CA170
:1023B0006DA17EA18FA198A5A2D576D56B017C01D8
:1023C00029A13AA14BA15CA1CA01B9013FD74B0198
:1023D0005C012DA13EA14FA158A5CA01B90136D774
:1023E0009B01AC01C501B401FBD44B015C019BD73F
:1023F0002B013C0129AD3AAD4BAD5CADCA01B90131
:1024000025D7A5019401ECD428EB3EE345E853E43D
:10241000E6D44B015C012AE939E949E950E4C301FA
:10242000B20114D79B01AC01C501B40168D5C9D470
:102430004B015C0120E030E044E353E4C701B60106
:1024400005D72BED3FE049E450E459D56B017C0101
:1024500020E030E044E353E4C501B401F7D62BEDAE
:102460003FE049E450E44BD59B01AC01C701B60104
:10247000B6D4609371057093720580937305909341
:102480007405CC5BDF4F0FB6F894DEBF0FBECDBF37
:10249000DF91CF91FF90EF90DF90CF90BF90AF9002
:1024A0009F908F907F906F905F904F9008956F9264
:1024B0007F928F929F92AF92BF92CF92DF92EF92D4
:1024C000FF920F931F93CF93DF93CDB7DEB7EA89C7
:1024D000FB89AC89BD899E888F88788C698C6F92C6
:1024E0007F928F929F92BF93AF93FF93EF930E943F
:1024F00010030E94FC040E94A0050E944A0830DCE0
:102500006091850570918605809187059091880579
:102510000E94D801609181057091820580918305A8
:10252000909184050E940D0260917D0570917E0559
:1025300080917F05909180050E944002609179050D
:1025400070917A0580917B0590917C050E947502BF
:102550006091750570917605809177059091780569
:102560000E94A802609171057091720580917305B7
:10257000909174050E94DD02609185057091860539
:1025800080918705909188050AE718E024E042E0F1
:1025900060D760918105709182058091830590914B
:1025A00084050BE618E024E042E053D760917D05F6
:1025B00070917E0580917F05909180050CE518E073
:1025C00024E042E046D76091790570917A058091C8
:1025D0007B0590917C050DE418E024E042E039D7BA
:1025E00060917505709176058091770590917805D9
:1025F0000EE318E024E042E02CD760917105709161
:10260000720580917305909174050FE218E024E043
:1026100042E01FD70FB6F894DEBF0FBECDBFDF91EB
:10262000CF911F910F91FF90EF90DF90CF90BF90CF
:10263000AF909F908F907F906F9008951092B90007
:1026400088E48093B800089594EA9093BC00ECEB82
:10265000F0E090819923ECF79091B900987F903148
:1026600099F48093BB0084E88093BC00ECEBF0E02D
:1026700080818823ECF78091B900887F803431F025
:10268000803231F083E0089580E0089581E008957C
:1026900082E0089584E98093BC00ECEBF0E0808157
:1026A00084FDFDCF0895BF92CF92DF92EF92FF920B
:1026B0000F931F93CF93DF93B82ECCEBD0E009EBB1
:1026C00010E00F2EF4EADF2EF02D0F2EFBEBEF2E95
:1026D000F12CF02D0F2EF4E8CF2EF02DD88288812A
:1026E0008823ECF7F8018081887F8830B9F7F701FB
:1026F000B082C88288818823ECF7F8018081887FC6
:10270000883111F0C7DFEACFDF91CF911F910F9190
:10271000FF90EF90DF90CF90BF9008958093BB0023
:1027200084E88093BC00ECEBF0E080818823ECF738
:102730008091B900887F883221F0803321F082E0D7
:10274000089580E0089581E0089584EC8093BC00B2
:10275000ECEBF0E080818823ECF78091BB000895DA
:1027600084E88093BC00ECEBF0E080818823ECF7F8
:102770008091BB0008952FEF82E597E021508040C3
:102780009040E1F700C0000080ED8DDF89E1C6DFF9
:1027900087E0C4DF7FDF80ED86DF8BE6BFDF81E08F
:1027A000BDDF78DF80ED7FDF8AE1B8DF80E0B6DF74
:1027B00071DF80ED78DF8BE1B1DF88E1AFDF6ADFC9
:1027C00080ED71DF88E3AADF81E0A8DF63CF0895A1
:1027D00080ED69DF8BE3A2DF81ED36CF0895CF93E3
:1027E000F7DFB3DFC82FB1DF2C2F30E0322F2227E5
:1027F000282B3093700520936F05A7DFC82FA5DF26
:102800002C2F30E0322F2227282B30936E05209377
:102810006D059BDFC82F99DF2C2F30E0322F222748
:10282000282B30936C0520936B058FDFC82F8DDF2D
:102830002C2F30E0322F2227282B30936405209351
:10284000630583DFC82F81DF2C2F30E0322F222752
:10285000282B30936A052093690577DFC82F75DF31
:102860002C2F30E0322F2227282B3093680520931D
:1028700067056BDFC82F74DF2C2F30E0322F222743
:10288000282B309366052093650504DFCF910895CA
:102890004F925F926F927F928F929F92AF92BF9270
:1028A000CF92DF92EF92FF920F931F93CF93DF931C
:1028B00000D01F92CDB7DEB792DF60916D057091A9
:1028C0006E05072E000C880B990BB4D34B015C01ED
:1028D00060916F0570917005072E000C880B990BA5
:1028E000A9D36B017C0160916B0570916C05072E7B
:1028F000000C880B990B9ED39B01AC01A7D4698374
:102900007A838B839C83A7019601C701B6019ED46D
:102910002B013C0129813A814B815C81C301B201C9
:102920005FD201D59B01AC01C501B401E8D2BCD294
:102930002B013C01A5019401C501B40187D4298173
:102940003A814B815C814CD2EED49B01AC01C70132
:10295000B601D5D2A9D24B015C0180916905909155
:102960006A0563E870E046D580914C0590914D056D
:10297000680F791F072E000C880B990B5BD32DEC89
:102980003CEC4CE45FE362D46B017C0123EA3CE461
:1029900045E652E4C301B20159D42DEC3CEC4CE4C1
:1029A0005EE354D49B01AC01C701B60119D20FD329
:1029B0006B017C017093530560935205809167050C
:1029C0009091680563E870E015D580914A05909173
:1029D0004B05680F791F072E000C880B990B2AD323
:1029E00020E030E040E05FE331D42B013C0123EAFA
:1029F0003CE445E652E4C501B40128D420E030E0CF
:102A000040E05FE323D49B01AC01C301B201E8D1F4
:102A10009058DDD24B015C017093510560935005D5
:102A2000809165059091660563E870E0E3D480913C
:102A3000480590914905680F791F70934F05609381
:102A40004E05D0924D05C0924C0590924B05809258
:102A50004A057093490560934805B601DD0C880B63
:102A6000990BE8D20EE515E020E042E0F2D4609147
:102A7000500570915105072E000C880B990BDAD286
:102A800009E515E020E042E0E4D460914E05709144
:102A90004F05072E000C880B990BCCD204E515E0EE
:102AA00020E042E0D6D40F900F900F900F90DF916E
:102AB000CF911F910F91FF90EF90DF90CF90BF903B
:102AC000AF909F908F907F906F905F904F90089500
:102AD000E0ECF0E080818E7F808380818260808363
:102AE000E1ECF0E080811082808188698083E2ECF3
:102AF000F0E0808110828081866080838FEC90E09E
:102B00009093C5008093C4000895CF93DF93FC0198
:102B10002081222369F0DC011196E0ECF0E0C6ECA4
:102B2000D0E0908195FFFDCF28832D912111F9CF21
:102B3000E0ECF0E0808185FFFDCFDF91CF9108953B
:102B4000F8940E945C01C4DF79DD15DE0E946C01FF
:102B50000E94B90178941F921F921F921F921F9298
:102B60001F921F921F92A12CB12C65018601750145
:102B7000A6019501C601B5019ADC8DB79EB70896EE
:102B80000FB6F8949EBF0FBE8DBF82DE60915205D6
:102B900070915305072E000C880B990B4BD25B01EB
:102BA0006C011F921F921F921F92609150057091AD
:102BB0005105072E000C880B990B3CD29F938F93E5
:102BC0007F936F93E12CF12C8701A8019701C80135
:102BD000B7016DDC88E295E098DF8EE595E095DF42
:102BE00081E395E092DF89E595E08FDF8BE395E067
:102BF0008CDF84E595E089DF85E495E086DF8DB79D
:102C00009EB708960FB6F8949EBF0FBE8DBFBDCF7E
:102C1000CF92DF92EF92FF92CF93DF93C090240583
:102C2000D0902505E0902605F0902705C701B60154
:102C300063D1C0EDD4E020E030E040E051E406D3C1
:102C40006C877D878E879F87C701B60162D320E09E
:102C500030E040E051E4FAD26C8F7D8F8E8F9F8FF1
:102C6000C0902005D0902105E0902205F09023052A
:102C7000C701B60141D1C0E9D4E020E030E040E036
:102C800051E4E4D26C877D878E879F87C701B601A8
:102C900040D320E030E040E051E4D8D26C8F7D8F0B
:102CA0008E8F9F8FC0901C05D0901D05E0901E0553
:102CB000F0901F05C701B6011FD1C0E5D4E020E0A8
:102CC00030E040E051E4C2D26C877D878E879F87D9
:102CD000C701B6011ED320E030E040E051E4B6D297
:102CE0006C8F7D8F8E8F9F8FC0901805D0901905A7
:102CF000E0901A05F0901B05C701B601FDD0C0E1B8
:102D0000D4E020E030E040E051E4A0D26C877D8741
:102D10008E879F87C701B601FCD220E030E040E0FB
:102D200051E494D26C8F7D8F8E8F9F8FC09014054D
:102D3000D0901505E0901605F0901705C701B60173
:102D4000DBD0C0EDD3E020E030E040E051E47ED2C3
:102D50006C877D878E879F87C701B601DAD220E016
:102D600030E040E051E472D26C8F7D8F8E8F9F8F68
:102D7000C0901005D0901105E0901205F090130559
:102D8000C701B601B9D0C0E9D3E020E030E040E0AF
:102D900051E45CD26C877D878E879F87C701B6011F
:102DA000B8D220E030E040E051E450D26C8F7D8F0B
:102DB0008E8F9F8FDF91CF91FF90EF90DF90CF901C
:102DC00008959F939F7771D10F9000203AF4905807
:102DD000A2EA2AED3FE049E450E413D0E5C150589F
:102DE000BB27AA270ED0E0C1A9D130F0AED120F088
:102DF00031F49F3F11F41EF479C10EF4E095E7FB26
:102E00006FC1E92FF3D180F3BA1762077307840704
:102E1000950718F071F49EF50BC20EF4E0950B2E99
:102E2000BA2FA02D0B01B90190010C01CA01A0011C
:102E30001124FF27591B99F0593F50F4503E68F177
:102E40001A16F040A22F232F342F4427585FF3CFB8
:102E5000469537952795A795F0405395C9F77EF489
:102E60001F16BA0B620B730B840BBAF09150A1F0D2
:102E7000FF0FBB1F661F771F881FC2F70EC0BA0F58
:102E8000621F731F841F48F4879577956795B795E0
:102E9000F7959E3F08F0B3CF9395880F08F09927D8
:102EA000EE0F979587950895DF93DD27B92FBF77AC
:102EB00040E85FE31616170648075B0710F4D92FA2
:102EC000BED19F938F937F936F936BD2E4EEF0E02C
:102ED00010D16AD12F913F914F915F91C3D1DD23E2
:102EE00049F09058A2EA2AED3FE049EC5FE3D07840
:102EF0005D2787DFDF9158C130D1E39566C10CD0E3
:102F000053C123D140F01AD130F021F45F3F19F0C2
:102F1000E7C051118EC1EAC069D198F39923C9F372
:102F20005523B1F3951B550BBB27AA2762177307CF
:102F3000840738F09F5F5F4F220F331F441FAA1F83
:102F4000A9F333D00E2E3AF0E0E830D09150504043
:102F5000E695001CCAF729D0FE2F27D0660F771FF1
:102F6000881FBB1F261737074807AB07B0E809F0D3
:102F7000BB0B802DBF01FF2793585F4F2AF09E3F68
:102F8000510568F0ADC055C15F3FECF3983EDCF3EE
:102F9000869577956795B795F7959F5FC9F7880FE1
:102FA000911D9695879597F90895E1E0660F771F33
:102FB000881FBB1F621773078407BA0720F0621BC4
:102FC000730B840BBA0BEE1F88F7E095089504D0BD
:102FD0006894B1112EC1089511D188F09F5790F0D7
:102FE000B92F9927B751A0F0D1F0660F771F881F2E
:102FF000991F1AF0BA95C9F712C0B13081F018D1F3
:10300000B1E0089515C1672F782F8827B85F39F090
:10301000B93FCCF3869577956795B395D9F73EF48C
:1030200090958095709561957F4F8F4F9F4F089534
:10303000E89409C097FB3EF4909580957095619552
:103040007F4F8F4F9F4F9923A9F0F92F96E9BB2708
:103050009395F695879577956795B795F111F8CF84
:10306000FAF4BB0F11F460FF1BC06F5F7F4F8F4FEF
:103070009F4F16C0882311F096E911C0772321F0E5
:103080009EE8872F762F05C0662371F096E8862F7D
:1030900070E060E02AF09A95660F771F881FDAF7D4
:1030A000880F9695879597F90895DF93CF931F938F
:1030B0000F938B01EC01E1E1F1E01BD075D0980199
:1030C000AE018B01EC0160E070E080E89FE387DEF9
:1030D0002AD19801AE010F911F91CF91DF91C2C00B
:1030E00097F99F6780E870E060E008959FEF80ECBB
:1030F0000895DF93CF931F930F93FF92EF92DF9288
:103100007B018C01689405C0DA2EEF01ABD0FE0183
:10311000E894A5912591359145915591AEF3EF0134
:1031200070DEFE019701A801DA9479F7DF90EF9045
:10313000FF900F911F91CF91DF91089500240A9481
:103140001616170618060906089500240A94121682
:103150001306140605060895C9CF50D0E8F3E89485
:10316000E0E0BB279F57F0F02AED3FE049EC06C0B6
:10317000EE0FBB0F661F771F881F28F0B23A620759
:103180007307840728F0B25A620B730B840BE39524
:103190009A9572F7803830F49A95BB0F661F771FA7
:1031A000881FD2F7904802C1092E0394000C11F435
:1031B000882352F0BB0F40F4BF2B11F460FF04C012
:1031C0006F5F7F4F8F4F9F4F0895EF93E0FF06C0D3
:1031D000A2EA2AED3FE049EC5FEB13DEE5DF0F905A
:1031E000039401FC9058E9E3F1E0F3C057FD9058D7
:1031F000440F551F59F05F3F71F04795880F97FBBB
:10320000991F61F09F3F79F0879508951216130674
:103210001406551FF2CF4695F1DF08C016161706A3
:103220001806991FF1CF86957105610508940895D8
:10323000E894BB2766277727CB0197F908959B0170
:10324000AC0160E070E080E89FE359CE0BD0ACCFDA
:1032500075DF28F07ADF18F0952309F041CF46CFCB
:103260001124E7CFC3DFA0F3959FD1F3950F50E072
:10327000551F629FF001729FBB27F00DB11D639F28
:10328000AA27F00DB11DAA1F649F6627B00DA11DCE
:10329000661F829F2227B00DA11D621F739FB00D74
:1032A000A11D621F839FA00D611D221F749F3327E4
:1032B000A00D611D231F849F600D211D822F762F7D
:1032C0006A2F11249F5750408AF0E1F088234AF07A
:1032D000EE0FFF1FBB1F661F771F881F91505040C6
:1032E000A9F79E3F510570F0FBCEA3CF5F3FECF3F3
:1032F000983EDCF3869577956795B795F795E795B2
:103300009F5FC1F7FE2B880F911D9695879597F9C2
:1033100008959F9322DF0F9007FCEE5F56CF11F4C4
:103320000EF4E4CE41C06ADFD0F39923D9F3CEF393
:103330009F57550B87FF46D00024A0E640EA900136
:1033400080585695979528F4805C660F771F881FE4
:1033500020F026173707480730F4621B730B840BE5
:10336000202931294A2BA695179407942025312529
:103370004A2758F7660F771F881F20F02617370750
:10338000480730F4620B730B840B200D311D411D77
:10339000A09581F7B901842F9158880F969587954C
:1033A00008959B01AC0152CF9F3F31F0915020F422
:1033B000879577956795B795880F911D9695879511
:1033C00097F9089591505040660F771F881FD2F7E4
:1033D00008959F938F937F936F93FF93EF939B0138
:1033E000AC0134DFEF91FF9184DE2F913F914F913B
:1033F0005F912CCF97FB072E16F4009406D077FD33
:1034000008D00BD007FC05D03EF4909581959F4FD6
:103410000895709561957F4F0895AA1BBB1B51E1DC
:1034200007C0AA1FBB1FA617B70710F0A61BB70B34
:10343000881F991F5A95A9F780959095BC01CD01D9
:103440000895EE0FFF1F881F8BBF0790F691E02DA8
:103450001994EF920F931F93CF93DF93E80147FDE9
:1034600002C034E001C034E1042E000C550B57FFBC
:1034700003C0519541955109E32E022F242FAE012F
:1034800007D0CE01DF91CF911F910F91EF9008955A
:103490008F929F92AF92BF92CF92DF92EF92FF9264
:1034A0000F931F93CF93DF93CDB7DEB729970FB656
:1034B000F894DEBF0FBECDBF6A01122FB02E2BE3F2
:1034C000201720F0FF24F394F00E02C02CE3F22E1C
:1034D0000F2D27E0AE014F5F5F4F50D1BC014981F6
:1034E000842F8970813031F0E1FC06C0E0FE06C017
:1034F00090E205C09DE203C09BE201C090E05E2D1A
:10350000507143FF3CC0911102C083E001C084E0D0
:10351000811718F4212F281B01C020E051110BC086
:10352000F601822F30E2882319F031938150FBCFCE
:10353000C20ED11C20E0992329F0D6019C93F601FC
:1035400031966F01C6010396E2FE0AC03EE4D60141
:103550003C9341E411964C93119712963C9306C00C
:103560003EE6F601308341E641833283FC01322F8F
:1035700040E2332309F442C041933150FACF42FF75
:1035800044C0911102C083E001C084E0811718F4A7
:10359000212F281B01C020E051110BC0F601822F02
:1035A00030E2882319F031938150FBCFC20ED11C39
:1035B00020E0992329F0D6019C93F60131966F0102
:1035C000C6010396E2FE0BC039E4D6013C933EE40B
:1035D00011963C93119736E412963C9307C039E656
:1035E000F60130833EE6318336E63283FC01322F2A
:1035F00040E2332319F041933150FBCFFC01E20F3D
:10360000F11D10828EEF9FEFA6C021E030E09111F6
:1036100002C020E030E0161617061CF4FB013196BC
:1036200002C0E1E0F0E02E0F3F1FBB2021F0EB2DA8
:10363000F0E0319602C0E0E0F0E02E0F3F1FE12FF6
:10364000F0E02E173F071CF4121B212F01C020E0D1
:103650008E2D887159F4F601822F30E2882319F0FB
:1036600031938150FBCFC20ED11C20E0992329F069
:10367000D6019C93F60131966F0151110BC0F601F2
:10368000822F90E3882319F091938150FBCFC20ED3
:10369000D11C20E00F2D060F9A81342F307144FF8A
:1036A00003C0913309F40150101624F4093018F0C6
:1036B00008E001C001E0AB0177FF02C040E050E04C
:1036C000FB01E41BF50BA1E0B0E0AC0FBD1FEA0F5E
:1036D000FB1F8EE2A82E4B01801A91080B2D10E0E3
:1036E0001195019511094F3FBFEF5B0721F4D601FA
:1036F000AC9211966D01641775072CF0841695062F
:1037000014F4818101C080E3415051093196D60102
:1037100011967D014017510724F0D6018C93670163
:10372000E2CF6417750739F4963320F4953319F412
:10373000311101C081E3F6018083F701822F90E20D
:10374000882319F091938150FBCFF701E20FF11D0F
:10375000108280E090E029960FB6F894DEBF0FBE8D
:10376000CDBFDF91CF911F910F91FF90EF90DF9030
:10377000CF90BF90AF909F908F900895283008F021
:1037800027E03327DA01990F311D87FD91600096FC
:103790006105710539F432602E5F3D9330E32A955F
:1037A000E1F708959F3F30F080387105610509F019
:1037B0003C5F3C5F3D93913008F08068911DDF9342
:1037C000CF931F930F93FF92EF92192F987F9695A7
:1037D000E92F96959695E90FFF27EE54FE4F99270E
:1037E0003327EE24FF24A701E701059008940794EE
:1037F00028F4360FE71EF81E491F511D660F771F6C
:10380000881F991F0694A1F70590079428F4E70EE6
:10381000F81E491F561FC11D770F881F991F661F6D
:103820000694A1F70590079428F4F80E491F561F37
:10383000C71FD11D880F991F661F771F0694A1F718
:103840000590079420F4490F561FC71FD81F990FE2
:10385000661F771F881F0694A9F78491109517702B
:1038600041F0D695C79557954795F794E7941A95E3
:10387000C1F7E8E5F1E068941590159135916591EF
:10388000959105907FE27395E118F10A430B560B71
:10389000C90BD009C0F7E10CF11E431F561FC91F09
:1038A000D01D7EF4703311F48A95E6CFE894015070
:1038B00030F0080F0AF40027021708F4202F239590
:1038C000022F7A3328F079E37D932A95E9F710C027
:1038D0007D932A9589F60694979567953795179560
:1038E0001794E118F10A430B560BC90BD00998F055
:1038F00023957E9173957A3308F070E37C932013BF
:10390000B8F77E9170617D9330F0839571E37D937C
:1039100070E32A95E1F71124EF90FF900F911F912A
:10392000CF91DF91992787FD90950895F894FFCF67
:103930000000000000000000000000000000803FC8
:103940009565A8BE33C471BF0000000000000000F0
:1039500000000000000000000000803F00000000A8
:1039600033C471BF9565A83E0000000077BE1141C9
:103970000000000000000000000000000000803F88
:1039800000000000000000000000803F0000000078
:1039900003787B3FC9E53FBE000000000000000047
:1039A000C9E53F3E03787B3F0000000077BE114130
:1039B0000000000000000000000000000000803F48
:1039C000394527BFC1CA413F000000000000000088
:1039D00000000000000000000000803F0000000028
:1039E000C1CA413F3945273F0000000077BE114161
:1039F0000000000000000000000000000000803F08
:103A000000000000000000000000803F00000000F7
:103A1000394527BFC1CA41BF0000000000000000B7
:103A2000C1CA413F394527BF0000000077BE1141A0
:103A30000000000000000000000000000000803FC7
:103A400003787B3FC9E53F3E000000000000000016
:103A500000000000000000000000803F00000000A7
:103A6000C9E53F3E03787BBF0000000077BE1141EF
:103A70000000000000000000000000000000803F87
:103A800000000000000000000000803F0000000077
:103A90009565A8BE33C4713F00000000000000001F
:103AA00033C471BF9565A8BE0000000077BE114108
:103AB0000000000000000000000000000000803F47
:103AC0000000803F00000000000000000000000037
:103AD000000000000000803F000000000000000027
:103AE00000000000000000000000803F0000000017
:103AF0000000000000000000000000000000803F07
:103B00000000803F000000000000000000000000F6
:103B1000000000000000803F0000000000000000E6
:103B200000000000000000000000803F00000000D6
:103B30000000000000000000000000000000803FC6
:103B40000000803F000000000000000000000000B6
:103B5000000000000000803F0000000000000000A6
:103B600000000000000000000000803F0000000096
:103B70000000000000000000000000000000803F86
:103B80000000803F00000000000000000000000076
:103B9000000000000000803F000000000000000066
:103BA00000000000000000000000803F0000000056
:103BB0000000000000000000000000000000803F46
:103BC0000000803F00000000000000000000000036
:103BD000000000000000803F000000000000000026
:103BE00000000000000000000000803F0000000016
:103BF0000000000000000000000000000000803F06
:103C00000000803F000000000000000000000000F5
:103C1000000000000000803F0000000000000000E5
:103C200000000000000000000000803F00000000D5
:103C30000000000000000000000000000000803FC5
:103C40004AF164BF37A299BFE5463FC0E5463F4011
:103C500037A2993F4AF1643F6769726F20783A2032
:103C600000096769726F20793A2000096769726FED
:083C7000207A3A20000D0A0041
:00000001FF
