S01100007069645F70616E656C2E7372656367
S113000031C1000060C100005EC100005CC100009D
S11300105AC1000058C1000056C1000054C100007C
S113002052C1000050C100004EC100004CC100008C
S11300304AC1000048C1000046C1000044C100009C
S113004042C100000C947F163EC100003CC1000078
S11300503AC1000038C1000036C100000C940915F3
S113006032C1000030C100002EC100002CC10000CC
S11300702AC1000028C1000026C1000024C10000DC
S113008022C1000020C100001EC100001CC10000EC
S11300901AC1000018C1000016C1000014C10000FC
S11300A012C1000010C100000EC100000CC100000C
S11300B00AC1000008C1000006C1000004C100001C
S11300C002C1000000C10000FEC00000FCC000002E
S11300D0FAC00000F8C00000F6C00000F4C0000040
S11300E0F2C0000072158115AD15BF15CE15FA15B5
S11300F00C167116084AD73B3BCE016E84BCBFFD7B
S1130100C12F3D6C74319ABD56833DDA3D00C77FE3
S113011011BED9E4BB4C3E916BAAAABE000000807C
S11301203F072C7AA5BA6CC590DA3B9365FC8BBC6F
S113013053F810FD3C5692834DBD879D3AB63DCB96
S1130140C9BF5BBE73DA0FC93F05A84CCDB2D44E0C
S1130150B93836A9020C50B9918688083CA6AAAAD7
S11301602ABE000000803F0000407A10F35A00A02D
S1130170724E18090010A5D4E80000E8764817006C
S113018000E40B54020000CA9A3B000000E1F505AC
S1130190000080969800000040420F000000A086F6
S11301A001000000102700000000E8030000000028
S11301B06400000000000A000000000001000000CC
S11301C000002C76D888DC674F0823DFC1DFAE59E6
S11301D0E1B1B796E5E3E453C63AE651997696E879
S11301E0E6C28426EB898C9B62ED407C6FFCEFBCFD
S11301F09C9F40F2BAA56FA5F490055A2AF75C9328
S11302006B6CF9676DC11BFCE0E40D47FEF520E65D
S1130210B500D0ED902E0300943577050080841E40
S1130220080000204E0A000000C80C333333330F9B
S1130230986E12831141EF8D2114893BE65516CF38
S1130240FEE6DB18D1844B381BF77C1D901DA4BB44
S1130250E424203284725E228100C9F124ECA1E5F9
S11302603D27D71811241FBECFEFD1E2DEBFCDBF8B
S113027000E00CBF15E0A0E0B2E0E0E8FFE300E03E
S11302800BBF02C007900D92A637B107D9F728E03B
S1130290A6E7B5E001C01D92A93DB207E1F711E060
S11302A0C2E3D1E000E006C021970109802FFE01DE
S11302B00E94491DC133D10780E00807A9F70E94B5
S11302C08B180C94BE1F9CCE68988DB18A638DB92F
S11302D0809880B38E6180BB889811BAE1E0F1E028
S11302E08081886380830895E0E9F0E080818E7FD7
S11302F08083808182608083E1E9F0E0808188608E
S1130300808380818061808380818F7780838081F6
S11303108B7F808380818D7F808380818E7F8083AB
S1130320109292001092710018BA2FE33CE93093B6
S1130330970020939600E0EAF0E080818E7F80832E
S1130340808182608083E1EAF0E08081886080833C
S113035080818061808380818F77808380818B7F9F
S1130360808380818D7F808380818E7F80831092C3
S1130370A2001092720019BA3093A7002093A6002D
S113038008951092950010929400E1E9F0E08081C4
S11303908B7F808380818260808380818E7F808355
S11303A01092A5001092A400E1EAF0E080818B7F16
S11303B0808380818260808380818E7F80830895A2
S11303C0CF92DF92EF92FF926B017C0120E030E04C
S11303D040E752E40E946A1C18169CF020E030E0CA
S11303E040E752ECC701B6010E94A41A88238CF49A
S11303F00F2EC12CD12CF0E7EF2EF2ECFF2EF02DB6
S113040008C00F2EC12CD12CF0E7EF2EF2E4FF2E02
S1130410F02DE0E9F0E080818068808380818F7B2B
S11304208083A701960160E070E084EB92E40E946F
S1130430171A20E030E040E151E40E94751C20E0EE
S113044030E044E353E40E94AB1A20E030E040E49F
S113045050E40E94181A20E03FE34CE157E40E9464
S1130460751C20E030E048EC52E40E94AB1A0E9474
S1130470131B7093990060939800FF90EF90DF90A6
S1130480CF900895CF92DF92EF92FF926B017C019F
S113049020E030E040E752E40E946A1C18169CF009
S11304A020E030E040E752ECC701B6010E94A41AF4
S11304B088238CF40F2EC12CD12CF0E7EF2EF2EC14
S11304C0FF2EF02D08C00F2EC12CD12CF0E7EF2EFB
S11304D0F2E4FF2EF02DE0E9F0E080818062808379
S11304E080818F7E808320E030E044EB52E4C701BA
S11304F0B6010E94181A20E030E040E151E40E9465
S1130500751C20E030E044E353E40E94AB1A20E081
S113051030E040E450E40E94181A20E03FE34CE14C
S113052057E40E94751C20E030E048EC52E40E943D
S1130530AB1A0E94131B70939B0060939A00FF9068
S1130540EF90DF90CF900895CF92DF92EF92FF92D9
S11305506B017C0120E030E040E752E40E946A1C19
S113056018169CF020E030E040E752ECC701B601D9
S11305700E94A41A88238CF40F2EC12CD12CF0E7EE
S1130580EF2EF2ECFF2EF02D08C00F2EC12CD12C33
S1130590F0E7EF2EF2E4FF2EF02DE0E9F0E08081A9
S11305A08860808380818B7F8083A701960160E0CF
S11305B070E084EB92E40E94171A20E030E040E1FE
S11305C051E40E94751C20E030E044E353E40E94AF
S11305D0AB1A20E030E040E450E40E94181A20E016
S11305E03FE34CE157E40E94751C20E030E048EC06
S11305F052E40E94AB1A0E94131B70939D006093F7
S11306009C00FF90EF90DF90CF900895CF92DF92FF
S1130610EF92FF926B017C0120E030E040E752E46E
S11306200E946A1C18169CF020E030E040E752EC6F
S1130630C701B6010E94A41A88238CF40F2EC12C82
S1130640D12CF0E7EF2EF2ECFF2EF02D08C00F2E88
S1130650C12CD12CF0E7EF2EF2E4FF2EF02DE0EACE
S1130660F0E080818068808380818F7B808320E0BC
S113067030E044EB52E4C701B6010E94181A20E0AE
S113068030E040E151E40E94751C20E030E044E396
S113069053E40E94AB1A20E030E040E450E40E94AE
S11306A0181A20E03FE34CE157E40E94751C20E057
S11306B030E048EC52E40E94AB1A0E94131B709382
S11306C0A9006093A800FF90EF90DF90CF90089569
S11306D0CF92DF92EF92FF926B017C0120E030E039
S11306E040E752E40E946A1C18169CF020E030E0B7
S11306F040E752ECC701B6010E94A41A88238CF487
S11307000F2EC12CD12CF0E7EF2EF2ECFF2EF02DA2
S113071008C00F2EC12CD12CF0E7EF2EF2E4FF2EEF
S1130720F02DE0EAF0E080818062808380818F7E1A
S11307308083A701960160E070E084EB92E40E945C
S1130740171A20E030E040E151E40E94751C20E0DB
S113075030E044E353E40E94AB1A20E030E040E48C
S113076050E40E94181A20E03FE34CE157E40E9451
S1130770751C20E030E048EC52E40E94AB1A0E9461
S1130780131B7093AB006093AA00FF90EF90DF906F
S1130790CF900895CF92DF92EF92FF926B017C018C
S11307A020E030E040E752E40E946A1C18169CF0F6
S11307B020E030E040E752ECC701B6010E94A41AE1
S11307C088238CF40F2EC12CD12CF0E7EF2EF2EC01
S11307D0FF2EF02D08C00F2EC12CD12CF0E7EF2EE8
S11307E0F2E4FF2EF02DE0EAF0E08081886080835F
S11307F080818B7F808320E030E044EB52E4C701AA
S1130800B6010E94181A20E030E040E151E40E9451
S1130810751C20E030E044E353E40E94AB1A20E06E
S113082030E040E450E40E94181A20E03FE34CE139
S113083057E40E94751C20E030E048EC52E40E942A
S1130840AB1A0E94131B7093AD006093AC00FF9031
S1130850EF90DF90CF9008954F925F926F927F92C6
S11308608F929F92AF92BF92CF92DF92EF92FF92BC
S11308700F931F93CF93DF93CDB7DEB768970FB66F
S1130880F894DEBF0FBECDBFED82FE820F831887C2
S113089003E618E00F2E412C512CF0E86F2EFFE3F5
S11308A07F2EF02DF801408251826282738214827D
S11308B01582168217821086118612861386648723
S11308C0758786879787108A118A128A138A448AC1
S11308D0558A668A778A108E118E128E138E248F13
S11308E0358F468F578F10A211A212A213A214A201
S11308F015A216A217A240A651A662A673A62AE9BB
S113090039E941E851E46D817E818F8198850E94A7
S1130910181AF80164A775A786A797A710AA11AAA1
S113092012AA13AA14AA15AA16AA17AA10AE11AECF
S113093012AE13AE44AE55AE66AE77AE2BED3FE0CD
S113094049E450E4C601B5010E94751C20E030E082
S113095044E353E40E94AB1A69837A838B839C83B8
S11309602BED3FE049E450E46CA57DA58EA59FA541
S11309700E94751C20E030E044E353E40E94AB1A6B
S11309804B015C012BED3FE049E450E468A979A9EF
S11309908AA99BA90E94751C20E030E044E353E43B
S11309A00E94AB1A6B017C010E94A81A69877A879E
S11309B08B879C87C501B4010E94A81A6D877E8726
S11309C08F87988B03E218E09B01AC0169857A85D7
S11309D08B859C850E94751CF801608371838283DA
S11309E09383C701B6010E94D81C6B017C01698105
S11309F07A818B819C810E94A81A6D837E838F8368
S1130A009887C501B4010E94D81C4B015C019B016D
S1130A10AC0169857A858B859C850E94751C698BE0
S1130A207A8B8B8B9C8B69817A818B819C810E94D0
S1130A30D81C69837A838B839C83C701B601905841
S1130A402D813E814F8158850E94751C6D8B7E8B54
S1130A508F8B988F29813A814B815C8169897A894E
S1130A608B899C890E94751C9B01AC016D897E89D0
S1130A708F89988D0E94181AF80164837583868380
S1130A80978329813A814B815C81C701B6010E9419
S1130A90751C6D8B7E8B8F8B988F29893A894B8936
S1130AA05C896D817E818F8198850E94751C9B0174
S1130AB0AC016D897E898F89988D0E94181AF8017E
S1130AC060877187828793871486158616861786B2
S1130AD0A70196016D857E858F8598890E94751C76
S1130AE0F801608B718B828B938BA5019401C701F4
S1130AF0B6010E94751C6B017C012D813E814F81E2
S1130B00588569857A858B859C850E94751C698BBF
S1130B107A8B8B8B9C8BA701960169817A818B815F
S1130B209C810E94751C9B01AC0169897A898B891F
S1130B309C890E94181AF801648B758B868B978B9D
S1130B4069857A858B859C85905829813A814B816A
S1130B505C810E94751C69877A878B879C87A701B3
S1130B6096016D817E818F8198850E94751C9B0101
S1130B70AC0169857A858B859C850E94181AF801D9
S1130B80608F718F828F938F148E158E168E178EB1
S1130B90D501C401B05880A391A3A2A3B3A3298112
S1130BA03A814B815C816D857E858F8598890E9411
S1130BB0751CF80164A375A386A397A32D813E81B8
S1130BC04F8158856D857E858F8598890E94751C17
S1130BD0F80160A771A782A793A714A615A616A665
S1130BE017A610AA11AA12AA13AA14AA15AA16AA19
S1130BF017AA10AE11AE12AE13AE44AE55AE66AE29
S1130C0077AE68960FB6F894DEBF0FBECDBFDF9106
S1130C10CF911F910F91FF90EF90DF90CF90BF90F5
S1130C20AF909F908F907F906F905F904F900895BA
S1130C302F923F924F925F926F927F928F929F92E8
S1130C40AF92BF92CF92DF92EF92FF920F931F93D6
S1130C50CF93DF9300D000D0CDB7DEB723E638E0E2
S1130C603A83298383EE97E09C838B830F2EF3E3EF
S1130C702F2EF8E03F2EF02D0F2EF3E26F2EF8E02A
S1130C807F2EF02D4B805C8062018301005C1F4F3E
S1130C907301E981FA81812C912CA12CB12CFE8362
S1130CA0ED83ED81FE816191719181919191FE833A
S1130CB0ED83F70120813181428153810E94751CAB
S1130CC09B01AC01682D792D8A2D9B2D0E94181A49
S1130CD0862E972EA82EB92EF0E1EF0EF11CE01609
S1130CE0F106F9F6862F992DAA2DBB2DF6018083E6
S1130CF09183A283B383F4E04F0E511C24E0620E6F
S1130D00711C6214730409F0BFCF89819A814096E3
S1130D109A838983EB81FC817096FC83EB8323EABD
S1130D2038E02817390709F0A7CF84E090E09093C2
S1130D30A4088093A3089093A6088093A508909391
S1130D40A8088093A70826960FB6F894DEBF0FBEB6
S1130D50CDBFDF91CF911F910F91FF90EF90DF9066
S1130D60CF90BF90AF909F908F907F906F905F9047
S1130D704F903F902F9008952F923F924F925F9201
S1130D806F927F928F929F92AF92BF92CF92DF9297
S1130D90EF92FF920F931F93CF93DF93CDB7DEB7FC
S1130DA028970FB6F894DEBF0FBECDBF41DF23EE08
S1130DB037E03E832D8383EA97E09C838B833A83D9
S1130DC029830F2EF8EE2F2EF4E03F2EF02D0F2E58
S1130DD0F8ED6F2EF4E07F2EF02D4B805C806201E5
S1130DE08301005C1F4F730129813A81812C912C6E
S1130DF0A12CB12C38872F83EF81F88561917191F3
S1130E0081919191F887EF83F701208131814281AB
S1130E1053810E94751C9B01AC01682D792D8A2D8C
S1130E209B2D0E94181A862E972EA82EB92EF0E11B
S1130E30EF0EF11CE016F106F9F6862F992DAA2D76
S1130E40BB2DF60180839183A283B383F4E04F0E1C
S1130E50511C24E0620E711C6214730409F0BFCFAC
S1130E6089819A8140969A838983EB81FC8170966B
S1130E70FC83EB8323E238E02817390709F0A7CF76
S1130E8083E697E09C838B83E3EEF7E0FA83E983C0
S1130E900F2EF8EA2F2EF4E03F2EF02D0F2EF8E956
S1130EA06F2EF4E07F2EF02D4B805C806201830175
S1130EB0005C1F4F730129813A81812C912CA12C54
S1130EC0B12C38872F83EF81F885619171918191DD
S1130ED09191F887EF83F701208131814281538119
S1130EE00E94751C9B01AC01682D792D8A2D9B2DC8
S1130EF00E94181A862E972EA82EB92EF0E1EF0E16
S1130F00F11CE016F106F9F6862F992DAA2DBB2DBA
S1130F10F60180839183A283B383F4E04F0E511CC6
S1130F2024E0620E711C6214730409F0BFCF89813E
S1130F309A8140969A838983EB81FC817096FC8325
S1130F40EB8323E238E02817390709F0A7CF83E2BF
S1130F5097E09C838B83E3EEF7E0FA83E9830F2E1B
S1130F60F8E62F2EF4E03F2EF02D0F2EF8E56F2E2D
S1130F70F4E07F2EF02D4B805C8062018301005CE5
S1130F801F4F730129813A81812C912CA12CB12C02
S1130F9038872F83EF81F8856191719181919191C7
S1130FA0F887EF83F70120813181428153810E94C8
S1130FB0751C9B01AC01682D792D8A2D9B2D0E94F7
S1130FC0181A862E972EA82EB92EF0E1EF0EF11CDA
S1130FD0E016F106F9F6862F992DAA2DBB2DF60100
S1130FE080839183A283B383F4E04F0E511C24E0E9
S1130FF0620E711C6214730409F0BFCF89819A8157
S113100040969A838983EB81FC817096FC83EB8301
S113101023E238E02817390709F0A7CF83EE96E0DA
S11310209C838B83E3EEF7E0FA83E9830F2EF8E2E7
S11310302F2EF4E03F2EF02D0F2EF8E16F2EF4E06A
S11310407F2EF02D4B805C8062018301005C1F4F7A
S1131050730129813A81812C912CA12CB12C3887E0
S11310602F83EF81F8856191719181919191F88736
S1131070EF83F70120813181428153810E94751CE5
S11310809B01AC01682D792D8A2D9B2D0E94181A85
S1131090862E972EA82EB92EF0E1EF0EF11C0E1518
S11310A01F05F9F6862F992DAA2DBB2DF6018083F5
S11310B09183A283B383F4E04F0E511C24E0620EAB
S11310C0711C2614370409F0BFCF89819A81409698
S11310D09A838983EB81FC817096FC83EB8323E202
S11310E038E02817390709F0A7CF83EA96E09C83F4
S11310F08B83E3EEF7E0FA83E9830F2EF8EE2F2ECD
S1131100F3E03F2EF02D0F2EF8ED6F2EF3E07F2E3F
S1131110F02D4B805C8062018301005C1F4F7301E2
S113112029813A81812C912CA12CB12C38872F83D1
S1131130EF81F8856191719181919191F887EF83A5
S1131140F70120813181428153810E94751C9B01EA
S1131150AC01682D792D8A2D9B2D0E94181A862E9C
S1131160972EA82EB92EF0E1EF0EF11C0E151F05D7
S1131170F9F6862F992DAA2DBB2DF6018083918334
S1131180A283B383F4E04F0E511C24E0620E711C61
S11311906214730409F0BFCF89819A8140969A83BF
S11311A08983EB81FC817096FC83EB8323E238E036
S11311B02817390709F0A7CF83E696E09A83898335
S11311C00F2EF8EA2F2EF3E03F2EF02D0F2EF8E924
S11311D06F2EF3E07F2EF02D49805A806201830147
S11311E0005C1F4F7301ED81FE81812C912CA12C99
S11311F0B12CFC83EB83EB81FC8161917191819132
S11312009191FC83EB83F7012081318142815381E9
S11312100E94751C9B01AC01682D792D8A2D9B2D94
S11312200E94181A862E972EA82EB92EF0E1EF0EE2
S1131230F11CE016F106F9F6862F992DAA2DBB2D87
S1131240F60180839183A283B383F4E04F0E511C93
S113125024E0620E711C6214730409F0BFCF8D8107
S11312609E8140969E838D83E981FA817096FA83EC
S1131270E98323E238E02817390709F0A7CF84E08F
S113128090E09093A4088093A3089093A608809379
S1131290A5089093A8088093A70828960FB6F894F9
S11312A0DEBF0FBECDBFDF91CF911F910F91FF9095
S11312B0EF90DF90CF90BF90AF909F908F907F90F2
S11312C06F905F904F903F902F9008952F923F9290
S11312D04F925F926F927F928F929F92AF92BF9242
S11312E0CF92DF92EF92FF920F931F93CF93DF93EE
S11312F0CDB7DEB7CC58D1400FB6F894DEBF0FBEE1
S1131300CDBF3ADD80E4FE013196DF01282F1D9226
S11313102A95E9F79E012F5B3F4FD901982F1D9223
S11313209A95E9F7205C3F4FD901982F1D929A9521
S1131330E9F7205C3F4FD901982F1D929A95E9F760
S1131340205C3F4FD901982F1D929A95E9F7205CB4
S11313503F4FD9011D928A95E9F71092A80810927F
S1131360A70828E533E0C957DE4F39832883C758D7
S1131370D140C757DE4FF983E883C958D140CF57CE
S1131380DE4FF983E883C158D1400F2EF3EB2F2EA3
S1131390F7E03F2EF02D0F2EF3EA4F2EF7E05F2EED
S11313A0F02DCF57DE4F68807980C158D140CD579A
S11313B0DE4F79826882C358D140720130E4E30E73
S11313C0F11C8201C957DE4FC880D980C758D1406B
S11313D0812C912CA12CB12CD6016D917D918D91F4
S11313E09D916D01F80120813181428153810E94D8
S11313F0751C9B01AC01682D792D8A2D9B2D0E94B3
S1131400181A862E972EA82EB92E005F1F4F0E1580
S11314101F0511F7862F992DAA2DBB2DCD57DE4F11
S1131420E881F981C358D14080839183A283B38337
S1131430F4E06F0E711C24E0420E511C421453045C
S113144009F0B5CFC957DE4F88819981C758D1407B
S11314504096C957DE4F99838883C758D140CF57E8
S1131460DE4FA881B981C158D1405096CF57DE4F85
S1131470B983A883C158D140E8E9F3E0E817F90734
S113148009F089CF0F2EF3E54F2EF6E05F2EF02DF5
S11314900F2EF3E6AF2EF6E0BF2EF02D0F2EF8E15F
S11314A0CF2EF2E0DF2EF02D212CCB57DE4FB98268
S11314B0A882C558D140C757DE4F88809980C95843
S11314C0D140CF57DE4F59824882C158D14028E0DD
S11314D032E0CD57DE4F2883C358D140C957DE4F81
S11314E03883C758D140C757DE4FD982C882C958FC
S11314F0D14089017401B12C312C612C722CD7019B
S11315006D917D918D919D917D01F8012191319194
S1131510419151918F010E94751C9B01AC016B2D6F
S1131520732D862D972D0E94181AB62E372E682EED
S1131530792EC016D10619F7862F932DA62DB72D17
S1131540CF57DE4FE881F981C158D1408083918320
S1131550A283B383F4E04F0E511C20E1820E911C50
S1131560CB57DE4F88819981C558D14084159505A4
S113157009F0A7CFC757DE4F28803980C958D1401A
S113158084E090E09093A4088093A30881E090E025
S11315909093A6088093A5081092A8081092A70813
S11315A0A8E1B3E0CB57DE4FB983A883C558D14037
S11315B0FE01EF5BFF4FC557DE4FF983E883CB583D
S11315C0D140C757DE4FF983E883C958D1400F2E65
S11315D0F3E64F2EF7E05F2EF02DC757DE4F6880FD
S11315E07980C958D140CF57DE4F79826882C1587B
S11315F0D1407201F0E4EF0EF11C8201CB57DE4FB3
S1131600C880D980C558D140812C912CA12CB12CF3
S1131610D6016D917D918D919D916D01F80120818F
S11316203181428153810E94751C9B01AC01682D5C
S1131630792D8A2D9B2D0E94181A862E972EA82E5E
S1131640B92E005F1F4FE016F10611F7862F992D72
S1131650AA2DBB2DCF57DE4FE881F981C158D14067
S113166080839183A283B383F4E06F0E711C24E022
S1131670420E511C83E797E08415950509F0B3CF1A
S1131680CB57DE4FA881B981C558D1405096CB576E
S1131690DE4FB983A883C558D140C757DE4FE881D0
S11316A0F981C958D1407096C757DE4FF983E88352
S11316B0C958D140A855B34009F089CF0F2EF3E49F
S11316C0CF2EF6E0DF2EF02D0F2EF3E54F2EF6E0B1
S11316D05F2EF02DC557DE4FA880B980CB58D1407E
S11316E0CF57DE4FD982C882C158D140CD57DE4F83
S11316F00881C358D140C957DE4F1881C758D1401B
S11317007501612C712C812C912CD7016D917D91E7
S11317108D919D917D01F8012191319141915191DA
S11317208F010E94751C9B01AC01662D772D882DBD
S1131730992D0E94181A662E772E882E992E20161F
S1131740310619F7862F972DA82DB92DCF57DE4FC7
S1131750E881F981C158D14080839183A283B38306
S1131760F4E0CF0ED11C20E1A20EB11C4C145D0498
S113177009F0B6CF84E090E09093A4088093A30886
S113178081E090E09093A6088093A5081092A808A1
S11317901092A70888ED92E0CB57DE4F9983888397
S11317A0C558D140DE01AF57BF4FC557DE4FB9838F
S11317B0A883CB58D140C757DE4FB983A883C958F3
S11317C0D1400F2EF3E24F2EF7E05F2EF02DC757D6
S11317D0DE4F68807980C958D140CF57DE4F798277
S11317E06882C158D1407201B0E4EB0EF11C820151
S11317F0CB57DE4FC880D980C558D140812C912C5D
S1131800A12CB12CF60161917191819191916F019B
S1131810D8012D913D914D915C910E94751C9B01C5
S1131820AC01682D792D8A2D9B2D0E94181A862EC5
S1131830972EA82EB92E005F1F4FE016F10611F760
S1131840862F992DAA2DBB2DCF57DE4FE881F98124
S1131850C158D14080839183A283B383F4E06F0E97
S1131860711C24E0420E511C83E397E08415950516
S113187009F0B3CFCB57DE4FA881B981C558D14009
S11318805096CB57DE4FB983A883C558D140C7576C
S1131890DE4FE881F981C958D1407096C757DE4FB1
S11318A0F983E883C958D140A851B34009F089CFDE
S11318B00F2EF3E3CF2EF6E0DF2EF02D0F2EF3E400
S11318C04F2EF6E05F2EF02DC557DE4FA880B9806D
S11318D0CB58D140CF57DE4FD982C882C158D140AE
S11318E0CD57DE4F0881C358D140C957DE4F188108
S11318F0C758D1407501612C712C812C912CD701D2
S11319006D917D918D919D917D01F8012191319190
S1131910419151918F010E94751C9B01AC01662D70
S1131920772D882D992D0E94181A662E772E882ED1
S1131930992E2016310619F7862F972DA82DB92D2B
S1131940CF57DE4FE881F981C158D140808391831C
S1131950A283B383F4E0CF0ED11C20E1A20EB11C0C
S1131960C414D50409F0B6CF84E090E09093A408A1
S11319708093A30881E090E09093A6088093A50843
S11319801092A8081092A70888E992E0CB57DE4F7E
S113199099838883C558D140DE01AF53BF4FC557E3
S11319A0DE4FB983A883CB58D140C757DE4FB983E4
S11319B0A883C958D1400F2EF3EE4F2EF6E05F2EC8
S11319C0F02DC757DE4F68807980C958D140CF5772
S11319D0DE4F79826882C158D1407201B0E4EB0EC7
S11319E0F11C8201CB57DE4FC880D980C558D14045
S11319F0812C912CA12CB12CF601619171918191D2
S1131A0091916F01D8012D913D914D915C910E946E
S1131A10751C9B01AC01682D792D8A2D9B2D0E948C
S1131A20181A862E972EA82EB92E005F1F4F0E155A
S1131A301F0511F7862F992DAA2DBB2DCF57DE4FE9
S1131A40E881F981C158D14080839183A283B38313
S1131A50F4E06F0E711C24E0420E511C83EF96E0FB
S1131A608415950509F0B3CFCB57DE4FA881B98112
S1131A70C558D1405096CB57DE4FB983A883C5587B
S1131A80D140C757DE4FE881F981C958D1407096DB
S1131A90C757DE4FF983E883C958D140A85DB240E7
S1131AA009F089CF0F2EF3E2CF2EF6E0DF2EF02DD2
S1131AB00F2EF3E34F2EF6E05F2EF02DC557DE4FC9
S1131AC0A880B980CB58D140CF57DE4FD982C88285
S1131AD0C158D140CD57DE4F0881C358D140C957B2
S1131AE0DE4F1881C758D1407501612C712C812CAF
S1131AF0912CD7016D917D918D919D917D01F8017E
S1131B0021913191419151918F010E94751C9B014A
S1131B10AC01662D772D882D992D0E94181A662EFA
S1131B20772E882E992E2016310619F7862F972D99
S1131B30A82DB92DCF57DE4FE881F981C158D14086
S1131B4080839183A283B383F4E0CF0ED11C20E180
S1131B50A20EB11C4C145D0409F0B6CF84E090E0F1
S1131B609093A4088093A30881E090E09093A60842
S1131B708093A5081092A8081092A70888E592E01F
S1131B80CB57DE4F99838883C558D140DE01AF5FC0
S1131B90BE4FC557DE4FB983A883CB58D140C75732
S1131BA0DE4FB983A883C958D1400F2EF3EA4F2ED4
S1131BB0F6E05F2EF02DC757DE4F68807980C95854
S1131BC0D140CF57DE4F79826882C158D14072012B
S1131BD0B0E4EB0EF11C8201CB57DE4FC880D980F4
S1131BE0C558D140812C912CA12CB12CF6016191C6
S1131BF07191819191916F01D8012D913D914D91F8
S1131C005C910E94751C9B01AC01682D792D8A2D75
S1131C109B2D0E94181A862E972EA82EB92E005F8F
S1131C201F4F0E151F0511F7862F992DAA2DBB2DB9
S1131C30CF57DE4FE881F981C158D1408083918329
S1131C40A283B383F4E06F0E711C24E0420E511C96
S1131C5083EB96E08415950509F0B3CFCB57DE4F9F
S1131C60A881B981C558D1405096CB57DE4FB9836E
S1131C70A883C558D140C757DE4FE881F981C958B8
S1131C80D1407096C757DE4FF983E883C958D140D5
S1131C90A859B24009F089CF0F2EF3E1CF2EF6E018
S1131CA0DF2EF02D0F2EF3E24F2EF6E05F2EF02DF7
S1131CB0C557DE4FA880B980CB58D140CF57DE4FEF
S1131CC0D982C882C158D140CD57DE4F0881C3584C
S1131CD0D140C957DE4F1881C758D1407501612CD6
S1131CE0712C812C912CD7016D917D918D919D91B9
S1131CF07D01F80121913191419151918F010E940F
S1131D00751C9B01AC01662D772D882D992D0E94A1
S1131D10181A662E772E882E992E2016310619F75A
S1131D20862F972DA82DB92DCF57DE4FE881F98145
S1131D30C158D14080839183A283B383F4E0CF0E52
S1131D40D11C20E1A20EB11C4C145D0409F0B6CFE5
S1131D5084E090E09093A4088093A30881E090E04D
S1131D609093A6088093A5081092A8081092A7083B
S1131D7088E192E0CB57DE4F99838883C558D140E0
S1131D80DE01AF5BBE4FC557DE4FB983A883CB5886
S1131D90D140C757DE4FB983A883C958D1400F2E0D
S1131DA0F3E64F2EF6E05F2EF02DC757DE4F688026
S1131DB07980C958D140CF57DE4F79826882C158A3
S1131DC0D1407201B0E4EB0EF11C8201CB57DE4F1F
S1131DD0C880D980C558D140812C912CA12CB12C1C
S1131DE0F60161917191819191916F01D8012D91C9
S1131DF03D914D915C910E94751C9B01AC01682D35
S1131E00792D8A2D9B2D0E94181A862E972EA82E86
S1131E10B92E005F1F4FE016F10611F7862F992D9A
S1131E20AA2DBB2DCF57DE4FE881F981C158D1408F
S1131E3080839183A283B383F4E06F0E711C24E04A
S1131E40420E511C83E796E08415950509F0B3CF43
S1131E50CB57DE4FA881B981C558D1405096CB5796
S1131E60DE4FB983A883C558D140C757DE4FE881F8
S1131E70F981C958D1407096C757DE4FF983E8837A
S1131E80C958D140A855B24009F089CF0F2EF3E0CC
S1131E90CF2EF6E0DF2EF02D0F2EF3E14F2EF6E0DD
S1131EA05F2EF02DC557DE4FA880B980CB58D140A6
S1131EB0CF57DE4FD982C882C158D140CD57DE4FAB
S1131EC00881C358D140C957DE4F1881C758D14043
S1131ED07501612C712C812C912CD7016D917D9110
S1131EE08D919D917D01F801219131914191519103
S1131EF08F010E94751C9B01AC01662D772D882DE6
S1131F00992D0E94181A662E772E882E992E201647
S1131F10310619F7862F972DA82DB92DCF57DE4FEF
S1131F20E881F981C158D14080839183A283B3832E
S1131F30F4E0CF0ED11C20E1A20EB11C4C145D04C0
S1131F4009F0B6CF84E090E09093A4088093A308AE
S1131F5021E030E03093A6082093A5089093A808C8
S1131F608093A708C457DE4F0FB6F894DEBF0FBEA8
S1131F70CDBFDF91CF911F910F91FF90EF90DF9034
S1131F80CF90BF90AF909F908F907F906F905F9015
S1131F904F903F902F9008954F925F926F927F924F
S1131FA08F929F92AF92BF92CF92DF92EF92FF9265
S1131FB0CF93DF93CDB7DEB7C454D1090FB6F894ED
S1131FC0DEBF0FBECDBFE3E5F6E0C080D180E28086
S1131FD0F380448055806680778080859185A285D2
S1131FE0B3858D839E83AF83B887E3E4F6E0808175
S1131FF09181A281B38189839A83AB83BC838481D9
S11320009581A681B78189879A87AB87BC878085AC
S11320109185A285B38589A79AA7ABA7BCA7E3E35B
S1132020F6E080819181A281B3818D879E87AF87FD
S1132030B88B84809580A680B78080859185A285A1
S1132040B3858DA79EA7AFA7B8ABE3E2F6E0808186
S11320509181A281B381898B9A8BAB8BBC8B848158
S11320609581A681B7818D8B9E8BAF8BB88F808530
S11320709185A285B38589AB9AABABABBCABE3E1ED
S1132080F6E080819181A281B381898F9A8FAB8F91
S1132090BC8F84819581A681B7818D8F9E8FAF8FF0
S11320A0B8A380859185A285B3858DAB9EABAFAB7C
S11320B0B8AFE3E0F6E080819181A281B38189A386
S11320C09AA3ABA3BCA384819581A681B7818DA378
S11320D09EA3AFA3B8A780859185A285B38589AF58
S11320E09AAFABAFBCAFA3019201C701B6010E9486
S11320F0AB1A0E947C1A21966CAF7DAF8EAF9FAF56
S11321002197A7019601C701B6010E94751C6B01B6
S11321107C01A7019601C301B2010E94181A0E9412
S1132120E21C25966CAF7DAF8EAF9FAF259728EB51
S11321303EE345E853E4C701B6010E94171A6B0158
S11321407C01A3019201C301B2010E94751C9B0191
S1132150AC01C701B6010E94181A6B017C012D81E4
S11321603E814F815885CA01B9010E94751C9B01AB
S1132170AC01C701B6010E94181A6B017C012AE95F
S113218039E949E950E425966CAD7DAD8EAD9FAD3E
S113219025970E94751C9B01AC01C701B6010E94E2
S11321A0AB1A0E94091A6B017C0120E030E044E381
S11321B053E421966CAD7DAD8EAD9FAD21970E9409
S11321C0751C2BED3FE049E450E40E94AB1A6D838B
S11321D07E838F83988720E030E044E353E4C70193
S11321E0B6010E94751C2BED3FE049E450E40E94C7
S11321F0AB1A9B01AC016D817E818F8198850E9411
S1132200171A6093FF05709300068093010690935C
S1132210020629813A814B815C8169857A858B85A7
S11322209C850E94AB1A0E947C1A6D837E838F83E7
S1132230988729813A814B815C81CA01B9010E9446
S1132240751C6B017C0129853A854B855C85CA0127
S1132250B9010E94751C9B01AC01C701B6010E9423
S1132260181A6B017C010E94E21C69837A838B83B8
S11322709C8329A53AA54BA55CA5CA01B9010E9476
S1132280751CA70196010E94181A28EB3EE345E845
S113229053E40E94171A6B017C012AE939E949E9E0
S11322A050E469817A818B819C810E94751C9B0119
S11322B0AC01C701B6010E94AB1A0E94091A6B0156
S11322C07C0120E030E044E353E46D817E818F8122
S11322D098850E94751C2BED3FE049E450E40E9470
S11322E0AB1A69837A838B839C8320E030E044E3D8
S11322F053E4C701B6010E94751C2BED3FE049E48D
S113230050E40E94AB1A9B01AC0169817A818B81F4
S11323109C810E94171A6093FB057093FC058093BF
S1132320FD059093FE05A50194016D857E858F853D
S113233098890E94AB1A0E947C1A69837A838B83E2
S11323409C832D853E854F855889CA01B9010E9419
S1132350751C6B017C01A7019601C301B2010E94A7
S1132360181A0E94E21C69877A878B879C8728EB5E
S11323703EE345E853E4C701B6010E94171A6B0116
S11323807C01A5019401C501B4010E94751C9B0147
S1132390AC01C701B6010E94181A6B017C012DA57E
S11323A03EA54FA558A9CA01B9010E94751C9B01FD
S11323B0AC01C701B6010E94181A6B017C012AE91D
S11323C039E949E950E469857A858B859C850E94C1
S11323D0751C9B01AC01C701B6010E94AB1A0E9497
S11323E0091A6B017C0120E030E044E353E4698185
S11323F07A818B819C810E94751C2BED3FE049E41E
S113240050E40E94AB1A4B015C0120E030E044E34D
S113241053E4C701B6010E94751C2BED3FE049E46B
S113242050E40E94AB1A9B01AC01C501B401FFD773
S11324306093F7057093F8058093F9059093FA0576
S113244029893A894B895C896D897E898F89988D20
S11324500E94AB1A0E947C1A4B015C0129893A89BB
S11324604B895C89CA01B9010E94751C6B017C010E
S11324702D893E894F89588DCA01B9010E94751C66
S11324809B01AC01C701B601D3D76B017C010E944B
S1132490E21C69837A838B839C8329A93AA94BA97B
S11324A05CA9CA01B9010E94751CA7019601C0D795
S11324B028EB3EE345E853E4BAD76B017C012AE9F3
S11324C039E949E950E469817A818B819C810E94D0
S11324D0751C9B01AC01C701B6010E94AB1A99D7C8
S11324E06B017C0120E030E044E353E4C501B40116
S11324F00E94751C2BED3FE049E450E40E94AB1AA6
S11325004B015C0120E030E044E353E4C701B60131
S11325100E94751C2BED3FE049E450E40E94AB1A85
S11325209B01AC01C501B40182D76093F30570939C
S1132530F4058093F5059093F6052D8D3E8D4F8D12
S113254058A1698D7A8D8B8D9C8D0E94AB1AD4D73E
S11325506B017C01298D3A8D4B8D5C8DCA01B901CB
S11325600E94751C4B015C01A5019401C301B201D9
S11325705FD70E94E21C2B013C0128EB3EE345E8B7
S113258053E4C501B40153D74B015C012D8D3E8D3D
S11325904F8D58A1CA01B9010E94751C9B01AC0161
S11325A0C501B40145D74B015C012DA93EA94FA932
S11325B058ADCA01B9010E94751C9B01AC01C5014B
S11325C0B40136D74B015C012AE939E949E950E401
S11325D0C301B2010E94751C9B01AC01C501B40189
S11325E0BAD717D74B015C0120E030E044E353E451
S11325F0C701B6010E94751C2BED3FE049E450E48D
S1132600AAD76B017C0120E030E044E353E4C50128
S1132610B4010E94751C2BED3FE049E450E49BD7C4
S11326209B01AC01C701B60102D76093EF0570931B
S1132630F0058093F1059093F20529A13AA14BA1ED
S11326405CA16DA17EA18FA198A585D755D76B01FB
S11326507C0129A13AA14BA15CA1CA01B9010E9444
S1132660751C4B015C012DA13EA14FA158A5CA01C7
S1132670B9010E94751C9B01AC01C501B401D8D6F7
S11326804B015C010E94E21C2B013C0129AD3AADD7
S11326904BAD5CADCA01B9010E94751CA501940142
S11326A0C7D628EB3EE345E853E4C1D64B015C01B1
S11326B02AE939E949E950E4C301B2010E94751CD1
S11326C09B01AC01C501B40146D7A3D64B015C0103
S11326D020E030E044E353E4C701B6010E94751CD6
S11326E02BED3FE049E450E436D76B017C0120E058
S11326F030E044E353E4C501B4010E94751C2BEDA2
S11327003FE049E450E427D79B01AC01C701B6017F
S11327108ED66093EB057093EC058093ED05909352
S1132720EE05CC5BDF4F0FB6F894DEBF0FBECDBF16
S1132730DF91CF91FF90EF90DF90CF90BF90AF905B
S11327409F908F907F906F905F904F9008956F92BD
S11327507F928F929F92AF92BF92CF92DF92EF922D
S1132760FF920F931F93CF93DF93CDB7DEB7EA8920
S1132770FB89AC89BD899E888F88788C698C6F921F
S11327807F928F929F92BF93AF93FF93EF930E9498
S11327902C040E9418060E94BC060E946609FCDBF9
S11327A06091FF05709100068091010690910206E8
S11327B00E94E0016091FB057091FC058091FD058C
S11327C09091FE050E9442026091F7057091F80510
S11327D08091F9059091FA050E94A4026091F30595
S11327E07091F4058091F5059091F6050E94060319
S11327F06091EF057091F0058091F1059091F205DB
S11328000E9468036091EB057091EC058091ED05E1
S11328109091EE050E94CA036091FF057091000635
S1132820809101069091020601ED18E022E042E059
S11328300E94511D6091FB057091FC058091FD057E
S11328409091FE0509EC18E022E042E00E94511D3F
S11328506091F7057091F8058091F9059091FA055A
S113286001EC18E022E042E00E94511D6091F30562
S11328707091F4058091F5059091F60509EB18E047
S113288022E042E00E94511D6091EF057091F00535
S11328908091F1059091F20501EB18E022E042E00D
S11328A00E94511D6091EB057091EC058091ED053E
S11328B09091EE0509EA18E022E042E00E94511DE1
S11328C00FB6F894DEBF0FBECDBFDF91CF911F913D
S11328D00F91FF90EF90DF90CF90BF90AF909F90BB
S11328E08F907F906F900895E0ECF0E080818E7F70
S11328F08083808182608083E1ECF0E080811082BB
S1132900808188698083E2ECF0E08081108280819C
S1132910866080838FEC90E09093C5008093C40020
S11329200895CF93DF93FC012081222369F0DC0119
S11329301196E0ECF0E0C6ECD0E0908195FFFDCF7D
S113294028832D912111F9CFE0ECF0E0808185FFFF
S1132950FDCFDF91CF910895ECE7F0E080818F7D8A
S1132960808380818F778083808180648083EAE79D
S1132970F0E08081876080838081806880838081AB
S11329808F7D80838081877F8083ABE7B0E08C91EB
S11329908F7B8C938C911C92AEE7B0E08C918C93DE
S11329A0ADE7B0E08C918C938081806480838081DA
S11329B084FFFDCFEAE7F0E08081806180830895A1
S11329C0ECE7F0E09081907E9083ABE7B0E09C91DF
S11329D0977F9C939081907E90839C91977F9C930A
S11329E09081282F2770922B908388708C93EAE72C
S11329F0F0E0808180648083808184FFFDCFEAE7FA
S1132A00F0E08081806180838091780090917900EA
S1132A1008951F920F920FB60F9211240BB60F92C6
S1132A208F939F93AF93BF93EF93FF93E5E0F1E010
S1132A30908180E2892780838091E7059091E80561
S1132A40A091E905B091EA050196A11DB11D8093FD
S1132A50E7059093E805A093E905B093EA0586E0BD
S1132A6086BDFF91EF91BF91AF919F918F910F9090
S1132A700BBE0F900FBE0F901F901895E4E0F1E08D
S1132A8080818062808385B58B7F85BD85B58260BA
S1132A9085BD85B5816085BD86E086BDEEE6F0E046
S1132AA08081816080830895F8946091E705709136
S1132AB0E8058091E9059091EA0578940895CF920C
S1132AC0DF92EF92FF920F931F938091E20590E0C3
S1132AD08830910508F009C1FC018827EE58FF4FA2
S1132AE08F4FD7C788E181BBDFDF6093E305709325
S1132AF0E4058093E5059093E60581E08093E20583
S1132B00F7C0D2DF0091E3051091E4052091E505BB
S1132B103091E605601771078207930768F468012E
S1132B207901C61AD70AE80AF90AD701C6018095BD
S1132B309095A095B09506C0DC01CB01801B910B4C
S1132B40A20BB30B9093E1058093E0050A970CF474
S1132B50CFC082E08093E205CBC080E031DFBC01CE
S1132B6080E090E08CD56093DC057093DD05809364
S1132B70DE059093DF0583E08093E205B9C082E12E
S1132B8081BB92DF6093E3057093E4058093E505D0
S1132B909093E60584E08093E205AAC085DF009166
S1132BA0E3051091E4052091E5053091E6056017F1
S1132BB071078207930768F468017901C61AD70A76
S1132BC0E80AF90AD701C60180959095A095B095B9
S1132BD006C0DC01CB01801B910BA20BB30B9093BD
S1132BE0E1058093E0050A970CF482C085E08093A8
S1132BF0E2057EC080E0E4DEBC0180E090E03FD5E9
S1132C006093D8057093D9058093DA059093DB051A
S1132C1086E08093E2056CC020E030E04AE753E4AC
S1132C206091DC057091DD058091DE059091DF05F2
S1132C30FED320E030E041EA53E457D620E030E010
S1132C404AEF53E488D420E030E041E253E4EFD388
S1132C506B017C016093D4057093D5058093D605F0
S1132C609093D70520E030E04AE753E46091D8051B
S1132C707091D9058091DA059091DB05D8D320E0D5
S1132C8030E048E753EC31D620E030E04AEF53E43B
S1132C9062D420E030E048EF52E4CAD36093D00518
S1132CA07093D1058093D2059093D3050BEC15E076
S1132CB020E040E0C701B601F4D68091D0059091A0
S1132CC0D105A091D205B091D305BC01CD01905896
S1132CD006EC15E020E040E0E4D687E08093E205CE
S1132CE007C011BA1092E20503C080E395E019DE33
S1132CF01F910F91FF90EF90DF90CF9008951F9256
S1132D000F920FB60F9211240BB60F924F925F924F
S1132D106F927F928F929F92AF92BF92CF92DF92E7
S1132D20EF92FF922F933F934F935F936F937F9311
S1132D308F939F93AF93BF93EF93FF93CF93DF93BF
S1132D40CDB7DEB72C97DEBFCDBFE5E0F1E09081D3
S1132D5080E489278083B3DE1092A2051092A30534
S1132D601092A4051092A5052091D4053091D505A3
S1132D704091D6055091D70560E070E0CB0157D360
S1132D806B017C01A6E9B5E06D937D938D939C93D3
S1132D9013978091B6059091B705A091B805B091AD
S1132DA0B90589839A83AB83BC8340909A0550907C
S1132DB09B0560909C0570909D058091BA0590914B
S1132DC0BB05A091BC05B091BD058D839E83AF83E7
S1132DD0B8878091BE059091BF05A091C005B091C0
S1132DE0C10589879A87AB87BC8729813A814B8142
S1132DF05C81C701B60179D54B015C012D813E810F
S1132E004F815885C301B20170D59B01AC01C50146
S1132E10B4010ED34B015C0120919E0530919F05B6
S1132E204091A0055091A10569857A858B859C8583
S1132E305CD59B01AC01C501B401FAD22091920585
S1132E40309193054091940550919505F1D24B0131
S1132E505C01AEE8B5E06D937D938D939C931397DD
S1132E6020E030E040EA50E435D518166CF480E0F8
S1132E7090E0A0EAB0E480938E0590938F05A09330
S1132E809005B093910515C020E030E040EA50EC85
S1132E90C501B40159D3882364F480E090E0A0EA2A
S1132EA0B0EC80938E0590938F05A0939005B0931A
S1132EB09105E6E9F5E04086518662867386C48210
S1132EC0D582E682F782EEE8F5E080819181A281E5
S1132ED0B38184839583A683B78310928A05109265
S1132EE08B0510928C0510928D052091D0053091A0
S1132EF0D1054091D2055091D30560E070E0CB013B
S1132F0096D26B017C01EEE7F5E0608371838283E6
S1132F1093838090820590908305A0908405B0905F
S1132F2085059B01AC0169817A818B819C81DDD40B
S1132F302B013C01A50194016D817E818F819885CF
S1132F40D4D49B01AC01C301B20172D22B013C0168
S1132F502091860530918705409188055091890517
S1132F6069857A858B859C85C0D49B01AC01C3019E
S1132F70B2015ED220917A0530917B0540917C05A7
S1132F8050917D0555D22B013C01A6E7B5E06D9328
S1132F907D938D939C93139720E030E040EA50E4B6
S1132FA099D418166CF480E090E0A0EAB0E4809321
S1132FB0760590937705A0937805B093790515C0AD
S1132FC020E030E040EA50ECC301B201BDD28823D6
S1132FD064F480E090E0A0EAB0EC809376059093EE
S1132FE07705A0937805B0937905EEE7F5E0808640
S1132FF09186A286B386C482D582E682F782E6E70A
S1133000F5E080819181A281B38184839583A68335
S1133010B7832C960FB6F894DEBF0FBECDBFDF91F9
S1133020CF91FF91EF91BF91AF919F918F917F913C
S11330306F915F914F913F912F91FF90EF90DF90AF
S1133040CF90BF90AF909F908F907F906F905F9044
S11330504F900F900BBE0F900FBE0F901F901895BE
S1133060E4E0F1E0808180648083E1E8F0E0808145
S11330708F7E8083808188608083A0E8B0E08C911B
S11330808D7F8C938C918E7F8C9380818B7F8083BA
S113309080818260808380818160808383EC99E079
S11330A09093890080938800EFE6F0E0808182604D
S11330B080830895AF92BF92CF92DF92EF92FF92F6
S11330C00F931F93A0907605B0907705C090780574
S11330D0D09079051F921F921F921F921F921F92E8
S11330E01F921F92E12CF12C8701A8019701C801BE
S11330F0B7012DDB8DB79EB708960FB6F8949EBF27
S11331000FBE8DBF1F910F91FF90EF90DF90CF9076
S1133110BF90AF900895F8940E946401E5DBAEDCA3
S11331200E9474010E94C10117DC9ADF78942FEF8A
S113313083ED90E3215080409040E1F700C000000F
S11331400F2EFEE8EF2EF5E0FF2EF02DC6E7D5E0BA
S1133150B1DFF70160817181828193810EEA15E00C
S113316024E040E09ED4688179818A819B8106EACB
S113317015E024E040E095D484E495E0D2DB8BECC8
S113318095E0CFDB81E595E0CCDB8EEA95E0C9DB09
S11331908AE595E0C6DB86EC95E0C3DB8AE695E03C
S11331A0C0DBC801BEDB83E795E0BBDBD1CF4F9228
S11331B05F926F927F928F929F92AF92BF92CF92C3
S11331C0DF92EF92FF92CF93DF93C0902C05D090C3
S11331D02D05E0902E05F0902F05C701B601B8D15A
S11331E0C8EDD4E020E030E040E051E47ED36C87C9
S11331F07D878E879F87C701B601DAD320E030E050
S113320040E051E472D36C8F7D8F8E8F9F8FC0907E
S11332102805D0902905E0902A05F0902B05C701D8
S1133220B60196D1C8E9D4E020E030E040E051E4B2
S11332305CD36C877D878E879F87C701B601B8D31F
S113324020E030E040E051E450D36C8F7D8F8E8FCE
S11332509F8FC0902405D0902505E0902605F0901E
S11332602705C701B60174D1C8E5D4E020E030E0F9
S113327040E051E43AD36C877D878E879F87C701EE
S1133280B60196D320E030E040E051E42ED36C8FB9
S11332907D8F8E8F9F8FC0902005D0902105E09068
S11332A02205F0902305C701B60152D1C8E1D4E04C
S11332B020E030E040E051E418D36C877D878E87AE
S11332C09F87C701B60174D320E030E040E051E4A9
S11332D00CD36C8F7D8F8E8F9F8FC0901C05D090E8
S11332E01D05E0901E05F0901F05C701B60130D101
S11332F0C8EDD3E020E030E040E051E4F6D26C8742
S11333007D878E879F87C701B60152D320E030E0C6
S113331040E051E4EAD26C8F7D8F8E8F9F8FC090F6
S11333201805D0901905E0901A05F0901B05C70107
S1133330B6010ED1C8E9D3E020E030E040E051E42A
S1133340D4D26C877D878E879F87C701B60130D31F
S113335020E030E040E051E4C8D26C8F7D8F8E8F46
S11333609F8FC0900002D0900102E0900202F09082
S11333700302C092BE05D092BF05E092C005F09250
S1133380C1058090040290900502A0900602B090BE
S113339007022AE037ED43E25CE36091C2057091D5
S11333A0C3058091C4059091C5059FD2A5019401E0
S11333B03ED02B013C01A7019601C701B60138D0CC
S11333C09B01AC01C301B20132D06093BA05709382
S11333D0BB058093BC059093BD05A5019401C7016D
S11333E0B60126D06093B6057093B7058093B805EF
S11333F09093B905DF91CF91FF90EF90DF90CF903C
S1133400BF90AF909F908F907F906F905F904F9000
S113341008959F939F7770D10F9000203AF49058AD
S1133420A2EA2AED3FE049E450E413D008C2505820
S1133430BB27AA270ED003C2CCD130F0D1D120F0C3
S113344031F49F3F11F41EF49CC10EF4E095E7FBA8
S113345092C1E92F16D280F3BA1762077307840763
S1133460950718F071F49EF52EC20EF4E0950B2E1C
S1133470BA2FA02D0B01B90190010C01CA01A001C2
S11334801124FF27591B99F0593F50F4503E68F11D
S11334901A16F040A22F232F342F4427585FF3CF5E
S11334A0469537952795A795F0405395C9F77EF42F
S11334B01F16BA0B620B730B840BBAF09150A1F078
S11334C0FF0FBB1F661F771F881FC2F70EC0BA0FFE
S11334D0621F731F841F48F4879577956795B79586
S11334E0F7959E3F08F0B3CF9395880F08F099277E
S11334F0EE0F979587950895DF93DD27B92FBF7752
S113350040E85FE31616170648075B0710F4D92F47
S1133510E5D19F938F937F936F9392D2E4EFF0E082
S113352033D18DD12F913F914F915F91EAD1DD231A
S113353049F09058A2EA2AED3FE049EC5FE3D078E5
S11335405D2787DFDF917BC1F2D008F481E0089525
S11335504FD1E39585C10CD072C142D140F039D12D
S113356030F021F45F3F19F006C15111ADC109C11A
S113357088D198F39923C9F35523B1F3951B550BBF
S1133580BB27AA2762177307840738F09F5F5F4F32
S1133590220F331F441FAA1FA9F333D00E2E3AF073
S11335A0E0E830D091505040E695001CCAF729D08D
S11335B0FE2F27D0660F771F881FBB1F26173707DC
S11335C04807AB07B0E809F0BB0B802DBF01FF270C
S11335D093585F4F2AF09E3F510568F0CCC074C1E8
S11335E05F3FECF3983EDCF3869577956795B79546
S11335F0F7959F5FC9F7880F911D9695879597F961
S11336000895E1E0660F771F881FBB1F62177307D9
S11336108407BA0720F0621B730B840BBA0BEE1FEE
S113362088F7E095089535D188F09F5790F0B92F29
S11336309927B751A0F0D1F0660F771F881F991F03
S11336401AF0BA95C9F712C0B13081F03CD1B1E09B
S1133650089539C1672F782F8827B85F39F0B93FAB
S1133660CCF3869577956795B395D9F73EF4909505
S11336708095709561957F4F8F4F9F4F0895E89483
S113368009C097FB3EF490958095709561957F4FA6
S11336908F4F9F4F9923A9F0F92F96E9BB27939554
S11336A0F695879577956795B795F111F8CFFAF464
S11336B0BB0F11F460FF1BC06F5F7F4F8F4F9F4F95
S11336C016C0882311F096E911C0772321F09EE8F3
S11336D0872F762F05C0662371F096E8862F70E059
S11336E060E02AF09A95660F771F881FDAF7880F33
S11336F09695879597F90895DF93CF931F930F932A
S11337008B01EC01E1E2F1E03FD099D09801AE01E8
S11337108B01EC0160E070E080E89FE388DE52D129
S11337209801AE010F911F91CF91DF91EAC0990FDB
S11337300008550FAA0BE0E8FEEF16161706E80777
S1133740F907C0F012161306E407F50798F0621B98
S1133750730B840B950B39F40A2661F0232B242B6D
S1133760252B21F408950A2609F4A140A6958FEF8C
S1133770811D811D089597F99F6780E870E060E0DE
S113378008959FEF80EC0895DF93CF931F930F93D9
S1133790FF92EF92DF927B018C01689405C0DA2ED0
S11337A0EF01AFD0FE01E894A591259135914591A3
S11337B05591AEF3EF014DDEFE019701A801DA94B5
S11337C079F7DF90EF90FF900F911F91CF91DF91E8
S11337D0089500240A941616170618060906089573
S11337E000240A9412161306140605060895C9CF78
S11337F050D0E8F3E894E0E0BB279F57F0F02AEDBF
S11338003FE049EC06C0EE0FBB0F661F771F881F11
S113381028F0B23A62077307840728F0B25A620BA1
S1133820730B840BE3959A9572F7803830F49A956C
S1133830BB0F661F771F881FD2F7904806C1092E59
S11338400394000C11F4882352F0BB0F40F4BF2BF7
S113385011F460FF04C06F5F7F4F8F4F9F4F089537
S1133860EF93E0FF06C0A2EA2AED3FE049EC5FEBEC
S1133870F0DDE5DF0F90039401FC9058E9E4F1E0FA
S1133880F7C057FD9058440F551F59F05F3F71F032
S11338904795880F97FB991F61F09F3F79F08795B3
S11338A00895121613061406551FF2CF4695F1DF3C
S11338B008C0161617061806991FF1CF86957105CC
S11338C0610508940895E894BB2766277727CB0100
S11338D097F908952CDF08F48FEF08959B01AC014C
S11338E060E070E080E89FE336CE0BD0A8CF71DFB4
S11338F028F076DF18F0952309F03DCF42CF11244C
S1133900E3CFBFDFA0F3959FD1F3950F50E0551F90
S1133910629FF001729FBB27F00DB11D639FAA2720
S1133920F00DB11DAA1F649F6627B00DA11D661F6F
S1133930829F2227B00DA11D621F739FB00DA11D90
S1133940621F839FA00D611D221F749F3327A00D4A
S1133950611D231F849F600D211D822F762F6A2FE6
S113396011249F5750408AF0E1F088234AF0EE0F6B
S1133970FF1FBB1F661F771F881F91505040A9F778
S11339809E3F510570F0F7CE9FCF5F3FECF3983E1A
S1133990DCF3869577956795B795F795E7959F5FDF
S11339A0C1F7FE2B880F911D9695879597F9089579
S11339B09F931EDF0F9007FCEE5F52CF11F40EF4BD
S11339C0E0CE41C066DFD0F39923D9F3CEF39F57FD
S11339D0550B87FF46D00024A0E640EA90018058AA
S11339E05695979528F4805C660F771F881F20F002
S11339F026173707480730F4621B730B840B202902
S1133A0031294A2BA69517940794202531254A2756
S1133A1058F7660F771F881F20F0261737074807C7
S1133A2030F4620B730B840B200D311D411DA095E6
S1133A3081F7B901842F9158880F96958795089539
S1133A409B01AC0152CF9F3F31F0915020F48795F8
S1133A5077956795B795880F911D9695879597F9F2
S1133A60089591505040660F771F881FD2F708952C
S1133A709F938F937F936F93FF93EF939B01AC017D
S1133A8034DFEF91FF9180DE2F913F914F915F9151
S1133A902CCFEE0FFF1F881F8BBF0790F691E02DF0
S1133AA01994EF920F931F93CF93DF93E80147FD8F
S1133AB002C034E001C034E1042E000C550B57FF62
S1133AC003C0519541955109E32E022F242FAE01D5
S1133AD007D0CE01DF91CF911F910F91EF90089500
S1133AE08F929F92AF92BF92CF92DF92EF92FF920A
S1133AF00F931F93CF93DF93CDB7DEB729970FB6FC
S1133B00F894DEBF0FBECDBF6A01122FB02E2BE397
S1133B10201720F0FF24F394F00E02C02CE3F22EC1
S1133B200F2D27E0AE014F5F5F4F50D1BC0149819B
S1133B30842F8970813031F0E1FC06C0E0FE06C0BC
S1133B4090E205C09DE203C09BE201C090E05E2DBF
S1133B50507143FF3CC0911102C083E001C084E076
S1133B60811718F4212F281B01C020E051110BC02C
S1133B70F601822F30E2882319F031938150FBCF74
S1133B80C20ED11C20E0992329F0D6019C93F601A2
S1133B9031966F01C6010396E2FE0AC03EE4D601E7
S1133BA03C9341E411964C93119712963C9306C0B2
S1133BB03EE6F601308341E641833283FC01322F35
S1133BC040E2332309F442C041933150FACF42FF1B
S1133BD044C0911102C083E001C084E0811718F44D
S1133BE0212F281B01C020E051110BC0F601822FA8
S1133BF030E2882319F031938150FBCFC20ED11CDF
S1133C0020E0992329F0D6019C93F60131966F01A7
S1133C10C6010396E2FE0BC039E4D6013C933EE4B0
S1133C2011963C93119736E412963C9307C039E6FB
S1133C30F60130833EE6318336E63283FC01322FCF
S1133C4040E2332319F041933150FBCFFC01E20FE2
S1133C50F11D10828EEF9FEFA6C021E030E091119C
S1133C6002C020E030E0161617061CF4FB01319662
S1133C7002C0E1E0F0E02E0F3F1FBB2021F0EB2D4E
S1133C80F0E0319602C0E0E0F0E02E0F3F1FE12F9C
S1133C90F0E02E173F071CF4121B212F01C020E077
S1133CA08E2D887159F4F601822F30E2882319F0A1
S1133CB031938150FBCFC20ED11C20E0992329F00F
S1133CC0D6019C93F60131966F0151110BC0F60198
S1133CD0822F90E3882319F091938150FBCFC20E79
S1133CE0D11C20E00F2D060F9A81342F307144FF30
S1133CF003C0913309F40150101624F4093018F06C
S1133D0008E001C001E0AB0177FF02C040E050E0F1
S1133D10FB01E41BF50BA1E0B0E0AC0FBD1FEA0F03
S1133D20FB1F8EE2A82E4B01801A91080B2D10E088
S1133D301195019511094F3FBFEF5B0721F4D6019F
S1133D40AC9211966D01641775072CF084169506D4
S1133D5014F4818101C080E3415051093196D601A8
S1133D6011967D014017510724F0D6018C93670109
S1133D70E2CF6417750739F4963320F4953319F4B8
S1133D80311101C081E3F6018083F701822F90E2B3
S1133D90882319F091938150FBCFF701E20FF11DB5
S1133DA0108280E090E029960FB6F894DEBF0FBE33
S1133DB0CDBFDF91CF911F910F91FF90EF90DF90D6
S1133DC0CF90BF90AF909F908F900895283008F0C7
S1133DD027E03327DA01990F311D87FD91600096A2
S1133DE06105710539F432602E5F3D9330E32A9505
S1133DF0E1F708959F3F30F080387105610509F0BF
S1133E003C5F3C5F3D93913008F08068911DDF93E7
S1133E10CF931F930F93FF92EF92192F987F96954C
S1133E20E92F96959695E90FFF27EE53FE4F9927B4
S1133E303327EE24FF24A701E70105900894079493
S1133E4028F4360FE71EF81E491F511D660F771F11
S1133E50881F991F0694A1F70590079428F4E70E8C
S1133E60F81E491F561FC11D770F881F991F661F13
S1133E700694A1F70590079428F4F80E491F561FDD
S1133E80C71FD11D880F991F661F771F0694A1F7BE
S1133E900590079420F4490F561FC71FD81F990F88
S1133EA0661F771F881F0694A9F7849110951770D1
S1133EB041F0D695C79557954795F794E7941A9589
S1133EC0C1F7E8E6F1E06894159015913591659194
S1133ED0959105907FE27395E118F10A430B560B17
S1133EE0C90BD009C0F7E10CF11E431F561FC91FAF
S1133EF0D01D7EF4703311F48A95E6CFE894015016
S1133F0030F0080F0AF40027021708F4202F239535
S1133F10022F7A3328F079E37D932A95E9F710C0CC
S1133F207D932A9589F60694979567953795179505
S1133F301794E118F10A430B560BC90BD00998F0FA
S1133F4023957E9173957A3308F070E37C93201364
S1133F50B8F77E9170617D9330F0839571E37D9322
S1133F6070E32A95E1F71124EF90FF900F911F91D0
S1133F70CF91DF91992787FD90950895F894FFCF0D
S1133F80000080BF000000410000000000000000AD
S1133F90000000000000803F9565A8BE33C471BFD7
S1133FA0000000000000000000000000000000000D
S1133FB00000803F0000000033C471BF9565A83E37
S1133FC00000000077BE1141000000000000000066
S1133FD0000000000000803F00000000000000001E
S1133FE00000803F0000000003787B3FC9E53FBE2E
S1133FF00000000000000000C9E53F3E03787B3F5D
S11340000000000077BE1141000000000000000025
S1134010000000000000803F394527BFC1CA413F6E
S1134020000000000000000000000000000000008C
S11340300000803F00000000C1CA413F3945273FCE
S11340400000000077BE11410000000000000000E5
S1134050000000000000803F00000000000000009D
S11340600000803F00000000394527BFC1CA41BF9E
S11340700000000000000000C1CA413F394527BFCD
S11340800000000077BE11410000000000000000A5
S1134090000000000000803F03787B3FC9E53F3EFD
S11340A0000000000000000000000000000000000C
S11340B00000803F00000000C9E53F3E03787BBF5D
S11340C00000000077BE1141000000000000000065
S11340D0000000000000803F00000000000000001D
S11340E00000803F000000009565A8BE33C4713F06
S11340F0000000000000000033C471BF9565A8BE35
S11341000000000077BE1141000000000000000024
S1134110000000000000803F0000803F000000001D
S11341200000000000000000000000000000803FCC
S1134130000000000000000000000000000000007B
S11341400000803F000000000000000000000000AC
S1134150000000000000803F0000803F00000000DD
S11341600000000000000000000000000000803F8C
S1134170000000000000000000000000000000003B
S11341800000803F0000000000000000000000006C
S1134190000000000000803F0000803F000000009D
S11341A00000000000000000000000000000803F4C
S11341B000000000000000000000000000000000FB
S11341C00000803F0000000000000000000000002C
S11341D0000000000000803F0000803F000000005D
S11341E00000000000000000000000000000803F0C
S11341F000000000000000000000000000000000BB
S11342000000803F000000000000000000000000EB
S1134210000000000000803F0000803F000000001C
S11342200000000000000000000000000000803FCB
S1134230000000000000000000000000000000007A
S11342400000803F000000000000000000000000AB
S1134250000000000000803F0000803F00000000DC
S11342600000000000000000000000000000803F8B
S1134270000000000000000000000000000000003A
S11342800000803F0000000000000000000000006B
S1134290000000000000803F4AF164BF37A299BFCC
S11342A0E5463FC0E5463F4037A2993F4AF1643FA7
S11342B00A0D416C676F20616E6461206D616C2032
S11342C062726F00506F736963696F6E20583A2091
S11342D0000950494420583A2000090909506F73D5
S11342E06963696F6E20593A200009504944205986
S10942F03A20000D0A0053
S9030000FC
